{
  "contractName": "DragonCoin",
  "abi": [
    {
      "inputs": [
        {
          "internalType": "string",
          "name": "tokenName",
          "type": "string"
        },
        {
          "internalType": "string",
          "name": "tokenSymbol",
          "type": "string"
        },
        {
          "internalType": "uint256",
          "name": "supply",
          "type": "uint256"
        },
        {
          "internalType": "address",
          "name": "beneficiary",
          "type": "address"
        }
      ],
      "stateMutability": "nonpayable",
      "type": "constructor"
    },
    {
      "anonymous": false,
      "inputs": [
        {
          "indexed": true,
          "internalType": "address",
          "name": "owner",
          "type": "address"
        },
        {
          "indexed": true,
          "internalType": "address",
          "name": "spender",
          "type": "address"
        },
        {
          "indexed": false,
          "internalType": "uint256",
          "name": "value",
          "type": "uint256"
        }
      ],
      "name": "Approval",
      "type": "event"
    },
    {
      "anonymous": false,
      "inputs": [
        {
          "indexed": true,
          "internalType": "address",
          "name": "from",
          "type": "address"
        },
        {
          "indexed": false,
          "internalType": "uint256",
          "name": "amount",
          "type": "uint256"
        }
      ],
      "name": "EtherDeposited",
      "type": "event"
    },
    {
      "anonymous": false,
      "inputs": [
        {
          "indexed": true,
          "internalType": "address",
          "name": "to",
          "type": "address"
        },
        {
          "indexed": false,
          "internalType": "uint256",
          "name": "amount",
          "type": "uint256"
        }
      ],
      "name": "EtherWithdrawn",
      "type": "event"
    },
    {
      "anonymous": false,
      "inputs": [
        {
          "indexed": true,
          "internalType": "uint256",
          "name": "amount",
          "type": "uint256"
        }
      ],
      "name": "LpWithdrawn",
      "type": "event"
    },
    {
      "anonymous": false,
      "inputs": [
        {
          "indexed": true,
          "internalType": "address",
          "name": "previousOwner",
          "type": "address"
        },
        {
          "indexed": true,
          "internalType": "address",
          "name": "newOwner",
          "type": "address"
        }
      ],
      "name": "OwnershipTransferred",
      "type": "event"
    },
    {
      "anonymous": false,
      "inputs": [
        {
          "indexed": true,
          "internalType": "address",
          "name": "newPair",
          "type": "address"
        }
      ],
      "name": "PairAddressUpdated",
      "type": "event"
    },
    {
      "anonymous": false,
      "inputs": [
        {
          "indexed": false,
          "internalType": "address",
          "name": "account",
          "type": "address"
        }
      ],
      "name": "Paused",
      "type": "event"
    },
    {
      "anonymous": false,
      "inputs": [
        {
          "indexed": true,
          "internalType": "bytes32",
          "name": "role",
          "type": "bytes32"
        },
        {
          "indexed": true,
          "internalType": "bytes32",
          "name": "previousAdminRole",
          "type": "bytes32"
        },
        {
          "indexed": true,
          "internalType": "bytes32",
          "name": "newAdminRole",
          "type": "bytes32"
        }
      ],
      "name": "RoleAdminChanged",
      "type": "event"
    },
    {
      "anonymous": false,
      "inputs": [
        {
          "indexed": true,
          "internalType": "bytes32",
          "name": "role",
          "type": "bytes32"
        },
        {
          "indexed": true,
          "internalType": "address",
          "name": "account",
          "type": "address"
        },
        {
          "indexed": true,
          "internalType": "address",
          "name": "sender",
          "type": "address"
        }
      ],
      "name": "RoleGranted",
      "type": "event"
    },
    {
      "anonymous": false,
      "inputs": [
        {
          "indexed": true,
          "internalType": "bytes32",
          "name": "role",
          "type": "bytes32"
        },
        {
          "indexed": true,
          "internalType": "address",
          "name": "account",
          "type": "address"
        },
        {
          "indexed": true,
          "internalType": "address",
          "name": "sender",
          "type": "address"
        }
      ],
      "name": "RoleRevoked",
      "type": "event"
    },
    {
      "anonymous": false,
      "inputs": [
        {
          "indexed": true,
          "internalType": "uint16",
          "name": "newBuyTaxRate",
          "type": "uint16"
        },
        {
          "indexed": true,
          "internalType": "uint16",
          "name": "newSellTaxRate",
          "type": "uint16"
        },
        {
          "indexed": true,
          "internalType": "uint16",
          "name": "newTransferTaxRate",
          "type": "uint16"
        }
      ],
      "name": "TaxRatesUpdated",
      "type": "event"
    },
    {
      "anonymous": false,
      "inputs": [
        {
          "indexed": false,
          "internalType": "string",
          "name": "message",
          "type": "string"
        }
      ],
      "name": "TaxesDisabled",
      "type": "event"
    },
    {
      "anonymous": false,
      "inputs": [
        {
          "indexed": false,
          "internalType": "string",
          "name": "message",
          "type": "string"
        }
      ],
      "name": "TaxesEnabled",
      "type": "event"
    },
    {
      "anonymous": false,
      "inputs": [
        {
          "indexed": false,
          "internalType": "uint16",
          "name": "marketing",
          "type": "uint16"
        },
        {
          "indexed": false,
          "internalType": "uint16",
          "name": "burn",
          "type": "uint16"
        },
        {
          "indexed": false,
          "internalType": "uint16",
          "name": "team",
          "type": "uint16"
        },
        {
          "indexed": false,
          "internalType": "uint16",
          "name": "redistribution",
          "type": "uint16"
        },
        {
          "indexed": false,
          "internalType": "uint16",
          "name": "lp",
          "type": "uint16"
        }
      ],
      "name": "TaxesUpdated",
      "type": "event"
    },
    {
      "anonymous": false,
      "inputs": [
        {
          "indexed": true,
          "internalType": "address",
          "name": "from",
          "type": "address"
        },
        {
          "indexed": true,
          "internalType": "address",
          "name": "to",
          "type": "address"
        },
        {
          "indexed": false,
          "internalType": "uint256",
          "name": "value",
          "type": "uint256"
        }
      ],
      "name": "Transfer",
      "type": "event"
    },
    {
      "anonymous": false,
      "inputs": [
        {
          "indexed": false,
          "internalType": "address",
          "name": "account",
          "type": "address"
        }
      ],
      "name": "Unpaused",
      "type": "event"
    },
    {
      "inputs": [],
      "name": "DEFAULT_ADMIN_ROLE",
      "outputs": [
        {
          "internalType": "bytes32",
          "name": "",
          "type": "bytes32"
        }
      ],
      "stateMutability": "view",
      "type": "function",
      "constant": true
    },
    {
      "inputs": [],
      "name": "MINTER_ROLE",
      "outputs": [
        {
          "internalType": "bytes32",
          "name": "",
          "type": "bytes32"
        }
      ],
      "stateMutability": "view",
      "type": "function",
      "constant": true
    },
    {
      "inputs": [],
      "name": "PAUSER_ROLE",
      "outputs": [
        {
          "internalType": "bytes32",
          "name": "",
          "type": "bytes32"
        }
      ],
      "stateMutability": "view",
      "type": "function",
      "constant": true
    },
    {
      "inputs": [
        {
          "internalType": "address",
          "name": "owner",
          "type": "address"
        },
        {
          "internalType": "address",
          "name": "spender",
          "type": "address"
        }
      ],
      "name": "allowance",
      "outputs": [
        {
          "internalType": "uint256",
          "name": "",
          "type": "uint256"
        }
      ],
      "stateMutability": "view",
      "type": "function",
      "constant": true
    },
    {
      "inputs": [
        {
          "internalType": "address",
          "name": "spender",
          "type": "address"
        },
        {
          "internalType": "uint256",
          "name": "amount",
          "type": "uint256"
        }
      ],
      "name": "approve",
      "outputs": [
        {
          "internalType": "bool",
          "name": "",
          "type": "bool"
        }
      ],
      "stateMutability": "nonpayable",
      "type": "function"
    },
    {
      "inputs": [
        {
          "internalType": "address",
          "name": "account",
          "type": "address"
        }
      ],
      "name": "balanceOf",
      "outputs": [
        {
          "internalType": "uint256",
          "name": "",
          "type": "uint256"
        }
      ],
      "stateMutability": "view",
      "type": "function",
      "constant": true
    },
    {
      "inputs": [
        {
          "internalType": "uint256",
          "name": "amount",
          "type": "uint256"
        }
      ],
      "name": "burn",
      "outputs": [],
      "stateMutability": "nonpayable",
      "type": "function"
    },
    {
      "inputs": [
        {
          "internalType": "address",
          "name": "account",
          "type": "address"
        },
        {
          "internalType": "uint256",
          "name": "amount",
          "type": "uint256"
        }
      ],
      "name": "burnFrom",
      "outputs": [],
      "stateMutability": "nonpayable",
      "type": "function"
    },
    {
      "inputs": [],
      "name": "buyTaxRate",
      "outputs": [
        {
          "internalType": "uint16",
          "name": "",
          "type": "uint16"
        }
      ],
      "stateMutability": "view",
      "type": "function",
      "constant": true
    },
    {
      "inputs": [],
      "name": "cap",
      "outputs": [
        {
          "internalType": "uint256",
          "name": "",
          "type": "uint256"
        }
      ],
      "stateMutability": "view",
      "type": "function",
      "constant": true
    },
    {
      "inputs": [],
      "name": "decimals",
      "outputs": [
        {
          "internalType": "uint8",
          "name": "",
          "type": "uint8"
        }
      ],
      "stateMutability": "view",
      "type": "function",
      "constant": true
    },
    {
      "inputs": [
        {
          "internalType": "address",
          "name": "spender",
          "type": "address"
        },
        {
          "internalType": "uint256",
          "name": "subtractedValue",
          "type": "uint256"
        }
      ],
      "name": "decreaseAllowance",
      "outputs": [
        {
          "internalType": "bool",
          "name": "",
          "type": "bool"
        }
      ],
      "stateMutability": "nonpayable",
      "type": "function"
    },
    {
      "inputs": [
        {
          "internalType": "bytes32",
          "name": "role",
          "type": "bytes32"
        }
      ],
      "name": "getRoleAdmin",
      "outputs": [
        {
          "internalType": "bytes32",
          "name": "",
          "type": "bytes32"
        }
      ],
      "stateMutability": "view",
      "type": "function",
      "constant": true
    },
    {
      "inputs": [
        {
          "internalType": "bytes32",
          "name": "role",
          "type": "bytes32"
        },
        {
          "internalType": "uint256",
          "name": "index",
          "type": "uint256"
        }
      ],
      "name": "getRoleMember",
      "outputs": [
        {
          "internalType": "address",
          "name": "",
          "type": "address"
        }
      ],
      "stateMutability": "view",
      "type": "function",
      "constant": true
    },
    {
      "inputs": [
        {
          "internalType": "bytes32",
          "name": "role",
          "type": "bytes32"
        }
      ],
      "name": "getRoleMemberCount",
      "outputs": [
        {
          "internalType": "uint256",
          "name": "",
          "type": "uint256"
        }
      ],
      "stateMutability": "view",
      "type": "function",
      "constant": true
    },
    {
      "inputs": [
        {
          "internalType": "bytes32",
          "name": "role",
          "type": "bytes32"
        },
        {
          "internalType": "address",
          "name": "account",
          "type": "address"
        }
      ],
      "name": "grantRole",
      "outputs": [],
      "stateMutability": "nonpayable",
      "type": "function"
    },
    {
      "inputs": [
        {
          "internalType": "bytes32",
          "name": "role",
          "type": "bytes32"
        },
        {
          "internalType": "address",
          "name": "account",
          "type": "address"
        }
      ],
      "name": "hasRole",
      "outputs": [
        {
          "internalType": "bool",
          "name": "",
          "type": "bool"
        }
      ],
      "stateMutability": "view",
      "type": "function",
      "constant": true
    },
    {
      "inputs": [
        {
          "internalType": "address",
          "name": "spender",
          "type": "address"
        },
        {
          "internalType": "uint256",
          "name": "addedValue",
          "type": "uint256"
        }
      ],
      "name": "increaseAllowance",
      "outputs": [
        {
          "internalType": "bool",
          "name": "",
          "type": "bool"
        }
      ],
      "stateMutability": "nonpayable",
      "type": "function"
    },
    {
      "inputs": [],
      "name": "lpBalance",
      "outputs": [
        {
          "internalType": "uint256",
          "name": "",
          "type": "uint256"
        }
      ],
      "stateMutability": "view",
      "type": "function",
      "constant": true
    },
    {
      "inputs": [],
      "name": "marketingWallet",
      "outputs": [
        {
          "internalType": "address",
          "name": "",
          "type": "address"
        }
      ],
      "stateMutability": "view",
      "type": "function",
      "constant": true
    },
    {
      "inputs": [],
      "name": "maximumTaxPercentage",
      "outputs": [
        {
          "internalType": "uint16",
          "name": "",
          "type": "uint16"
        }
      ],
      "stateMutability": "view",
      "type": "function",
      "constant": true
    },
    {
      "inputs": [
        {
          "internalType": "address",
          "name": "to",
          "type": "address"
        },
        {
          "internalType": "uint256",
          "name": "amount",
          "type": "uint256"
        }
      ],
      "name": "mint",
      "outputs": [],
      "stateMutability": "nonpayable",
      "type": "function"
    },
    {
      "inputs": [],
      "name": "name",
      "outputs": [
        {
          "internalType": "string",
          "name": "",
          "type": "string"
        }
      ],
      "stateMutability": "view",
      "type": "function",
      "constant": true
    },
    {
      "inputs": [],
      "name": "owner",
      "outputs": [
        {
          "internalType": "address",
          "name": "",
          "type": "address"
        }
      ],
      "stateMutability": "view",
      "type": "function",
      "constant": true
    },
    {
      "inputs": [],
      "name": "pause",
      "outputs": [],
      "stateMutability": "nonpayable",
      "type": "function"
    },
    {
      "inputs": [],
      "name": "paused",
      "outputs": [
        {
          "internalType": "bool",
          "name": "",
          "type": "bool"
        }
      ],
      "stateMutability": "view",
      "type": "function",
      "constant": true
    },
    {
      "inputs": [],
      "name": "redistributionBalance",
      "outputs": [
        {
          "internalType": "uint256",
          "name": "",
          "type": "uint256"
        }
      ],
      "stateMutability": "view",
      "type": "function",
      "constant": true
    },
    {
      "inputs": [],
      "name": "renounceOwnership",
      "outputs": [],
      "stateMutability": "nonpayable",
      "type": "function"
    },
    {
      "inputs": [
        {
          "internalType": "bytes32",
          "name": "role",
          "type": "bytes32"
        },
        {
          "internalType": "address",
          "name": "account",
          "type": "address"
        }
      ],
      "name": "renounceRole",
      "outputs": [],
      "stateMutability": "nonpayable",
      "type": "function"
    },
    {
      "inputs": [
        {
          "internalType": "bytes32",
          "name": "role",
          "type": "bytes32"
        },
        {
          "internalType": "address",
          "name": "account",
          "type": "address"
        }
      ],
      "name": "revokeRole",
      "outputs": [],
      "stateMutability": "nonpayable",
      "type": "function"
    },
    {
      "inputs": [],
      "name": "sellTaxRate",
      "outputs": [
        {
          "internalType": "uint16",
          "name": "",
          "type": "uint16"
        }
      ],
      "stateMutability": "view",
      "type": "function",
      "constant": true
    },
    {
      "inputs": [
        {
          "internalType": "bytes4",
          "name": "interfaceId",
          "type": "bytes4"
        }
      ],
      "name": "supportsInterface",
      "outputs": [
        {
          "internalType": "bool",
          "name": "",
          "type": "bool"
        }
      ],
      "stateMutability": "view",
      "type": "function",
      "constant": true
    },
    {
      "inputs": [],
      "name": "symbol",
      "outputs": [
        {
          "internalType": "string",
          "name": "",
          "type": "string"
        }
      ],
      "stateMutability": "view",
      "type": "function",
      "constant": true
    },
    {
      "inputs": [],
      "name": "taxesEnabled",
      "outputs": [
        {
          "internalType": "bool",
          "name": "",
          "type": "bool"
        }
      ],
      "stateMutability": "view",
      "type": "function",
      "constant": true
    },
    {
      "inputs": [],
      "name": "teamWallet",
      "outputs": [
        {
          "internalType": "address",
          "name": "",
          "type": "address"
        }
      ],
      "stateMutability": "view",
      "type": "function",
      "constant": true
    },
    {
      "inputs": [],
      "name": "totalSupply",
      "outputs": [
        {
          "internalType": "uint256",
          "name": "",
          "type": "uint256"
        }
      ],
      "stateMutability": "view",
      "type": "function",
      "constant": true
    },
    {
      "inputs": [
        {
          "internalType": "address",
          "name": "to",
          "type": "address"
        },
        {
          "internalType": "uint256",
          "name": "amount",
          "type": "uint256"
        }
      ],
      "name": "transfer",
      "outputs": [
        {
          "internalType": "bool",
          "name": "",
          "type": "bool"
        }
      ],
      "stateMutability": "nonpayable",
      "type": "function"
    },
    {
      "inputs": [
        {
          "internalType": "address",
          "name": "from",
          "type": "address"
        },
        {
          "internalType": "address",
          "name": "to",
          "type": "address"
        },
        {
          "internalType": "uint256",
          "name": "amount",
          "type": "uint256"
        }
      ],
      "name": "transferFrom",
      "outputs": [
        {
          "internalType": "bool",
          "name": "",
          "type": "bool"
        }
      ],
      "stateMutability": "nonpayable",
      "type": "function"
    },
    {
      "inputs": [
        {
          "internalType": "address",
          "name": "newOwner",
          "type": "address"
        }
      ],
      "name": "transferOwnership",
      "outputs": [],
      "stateMutability": "nonpayable",
      "type": "function"
    },
    {
      "inputs": [],
      "name": "transferTaxRate",
      "outputs": [
        {
          "internalType": "uint16",
          "name": "",
          "type": "uint16"
        }
      ],
      "stateMutability": "view",
      "type": "function",
      "constant": true
    },
    {
      "inputs": [],
      "name": "transferTaxes",
      "outputs": [
        {
          "internalType": "uint16",
          "name": "marketing",
          "type": "uint16"
        },
        {
          "internalType": "uint16",
          "name": "burn",
          "type": "uint16"
        },
        {
          "internalType": "uint16",
          "name": "team",
          "type": "uint16"
        },
        {
          "internalType": "uint16",
          "name": "redistribution",
          "type": "uint16"
        },
        {
          "internalType": "uint16",
          "name": "lp",
          "type": "uint16"
        }
      ],
      "stateMutability": "view",
      "type": "function",
      "constant": true
    },
    {
      "inputs": [],
      "name": "unpause",
      "outputs": [],
      "stateMutability": "nonpayable",
      "type": "function"
    },
    {
      "stateMutability": "payable",
      "type": "receive",
      "payable": true
    },
    {
      "inputs": [
        {
          "internalType": "address",
          "name": "account",
          "type": "address"
        }
      ],
      "name": "excludeFromTaxes",
      "outputs": [],
      "stateMutability": "nonpayable",
      "type": "function"
    },
    {
      "inputs": [
        {
          "internalType": "address",
          "name": "account",
          "type": "address"
        }
      ],
      "name": "includeInTaxes",
      "outputs": [],
      "stateMutability": "nonpayable",
      "type": "function"
    },
    {
      "inputs": [
        {
          "internalType": "address",
          "name": "account",
          "type": "address"
        }
      ],
      "name": "isExcludedFromTaxes",
      "outputs": [
        {
          "internalType": "bool",
          "name": "",
          "type": "bool"
        }
      ],
      "stateMutability": "view",
      "type": "function",
      "constant": true
    },
    {
      "inputs": [
        {
          "internalType": "address",
          "name": "account",
          "type": "address"
        },
        {
          "internalType": "bool",
          "name": "state",
          "type": "bool"
        }
      ],
      "name": "setBot",
      "outputs": [],
      "stateMutability": "nonpayable",
      "type": "function"
    },
    {
      "inputs": [
        {
          "internalType": "address[]",
          "name": "accounts",
          "type": "address[]"
        },
        {
          "internalType": "bool",
          "name": "state",
          "type": "bool"
        }
      ],
      "name": "bulkSetBot",
      "outputs": [],
      "stateMutability": "nonpayable",
      "type": "function"
    },
    {
      "inputs": [
        {
          "internalType": "address",
          "name": "account",
          "type": "address"
        }
      ],
      "name": "isBot",
      "outputs": [
        {
          "internalType": "bool",
          "name": "",
          "type": "bool"
        }
      ],
      "stateMutability": "view",
      "type": "function",
      "constant": true
    },
    {
      "inputs": [],
      "name": "enableTaxes",
      "outputs": [],
      "stateMutability": "nonpayable",
      "type": "function"
    },
    {
      "inputs": [],
      "name": "disableTaxes",
      "outputs": [],
      "stateMutability": "nonpayable",
      "type": "function"
    },
    {
      "inputs": [
        {
          "internalType": "address",
          "name": "newPair",
          "type": "address"
        }
      ],
      "name": "setPairAddress",
      "outputs": [],
      "stateMutability": "nonpayable",
      "type": "function"
    },
    {
      "inputs": [
        {
          "internalType": "address[]",
          "name": "recipients",
          "type": "address[]"
        },
        {
          "internalType": "uint256[]",
          "name": "amounts",
          "type": "uint256[]"
        }
      ],
      "name": "airdrop",
      "outputs": [],
      "stateMutability": "nonpayable",
      "type": "function"
    },
    {
      "inputs": [
        {
          "internalType": "uint256",
          "name": "amount",
          "type": "uint256"
        }
      ],
      "name": "withdrawLp",
      "outputs": [],
      "stateMutability": "nonpayable",
      "type": "function"
    },
    {
      "inputs": [
        {
          "internalType": "address",
          "name": "to",
          "type": "address"
        },
        {
          "internalType": "uint256",
          "name": "amount",
          "type": "uint256"
        }
      ],
      "name": "withdrawEther",
      "outputs": [],
      "stateMutability": "nonpayable",
      "type": "function"
    },
    {
      "inputs": [
        {
          "internalType": "uint16",
          "name": "newBuyTaxRate",
          "type": "uint16"
        },
        {
          "internalType": "uint16",
          "name": "newSellTaxRate",
          "type": "uint16"
        },
        {
          "internalType": "uint16",
          "name": "newTransferTaxRate",
          "type": "uint16"
        }
      ],
      "name": "updateTaxRates",
      "outputs": [],
      "stateMutability": "nonpayable",
      "type": "function"
    },
    {
      "inputs": [
        {
          "internalType": "uint16",
          "name": "marketing",
          "type": "uint16"
        },
        {
          "internalType": "uint16",
          "name": "burn",
          "type": "uint16"
        },
        {
          "internalType": "uint16",
          "name": "team",
          "type": "uint16"
        },
        {
          "internalType": "uint16",
          "name": "redistribution",
          "type": "uint16"
        },
        {
          "internalType": "uint16",
          "name": "lp",
          "type": "uint16"
        }
      ],
      "name": "updateTaxes",
      "outputs": [],
      "stateMutability": "nonpayable",
      "type": "function"
    }
  ],
  "bytecode": "0x60a0604052734b20993bc481177ec7e8f571cecae8a9e22c02db600860006101000a81548173ffffffffffffffffffffffffffffffffffffffff021916908373ffffffffffffffffffffffffffffffffffffffff16021790555073ab8483f64d9c6d1ecf9b849ae677dd3315835cb2600960006101000a81548173ffffffffffffffffffffffffffffffffffffffff021916908373ffffffffffffffffffffffffffffffffffffffff1602179055506032600d60006101000a81548161ffff021916908361ffff1602179055506032600d60026101000a81548161ffff021916908361ffff1602179055506032600d60046101000a81548161ffff021916908361ffff1602179055506064600d60066101000a81548161ffff021916908361ffff1602179055506001600d601c6101000a81548160ff0219169083151502179055506040518060a0016040528061012c61ffff168152602001606461ffff16815260200161012c61ffff16815260200160c861ffff168152602001606461ffff16815250600e60008201518160000160006101000a81548161ffff021916908361ffff16021790555060208201518160000160026101000a81548161ffff021916908361ffff16021790555060408201518160000160046101000a81548161ffff021916908361ffff16021790555060608201518160000160066101000a81548161ffff021916908361ffff16021790555060808201518160000160086101000a81548161ffff021916908361ffff16021790555050503480156200024357600080fd5b5060405162006c4438038062006c44833981810160405281019062000269919062000df7565b6200028882670de0b6b3a76400006200042c60201b6200219a1760201c565b848481818160059080519060200190620002a492919062000b0a565b508060069080519060200190620002bd92919062000b0a565b5050506000600760006101000a81548160ff021916908315150217905550620002ff6000801b620002f36200044460201b60201c565b6200044c60201b60201c565b620003407f9f2df0fed2c77648de5860a4cc508cd0818c85b8b8a1ab4ceeef8d981c8956a6620003346200044460201b60201c565b6200044c60201b60201c565b620003817f65d7a28e3265b37a6474929f336521b332c1681b933f6cb9f3376673440d862a620003756200044460201b60201c565b6200044c60201b60201c565b505060008111620003c9576040517f08c379a0000000000000000000000000000000000000000000000000000000008152600401620003c09062000f08565b60405180910390fd5b806080818152505050620003f2620003e66200044460201b60201c565b6200046260201b60201c565b62000422816200041684670de0b6b3a76400006200042c60201b6200219a1760201c565b6200052860201b60201c565b5050505062001225565b600081836200043c919062000f59565b905092915050565b600033905090565b6200045e8282620005b460201b60201c565b5050565b6000600760019054906101000a900473ffffffffffffffffffffffffffffffffffffffff16905081600760016101000a81548173ffffffffffffffffffffffffffffffffffffffff021916908373ffffffffffffffffffffffffffffffffffffffff1602179055508173ffffffffffffffffffffffffffffffffffffffff168173ffffffffffffffffffffffffffffffffffffffff167f8be0079c531659141344cd1fd0a4f28419497f9722a3daafe3b4186f6b6457e060405160405180910390a35050565b62000538620005fc60201b60201c565b81620005496200060660201b60201c565b62000555919062000fba565b111562000599576040517f08c379a0000000000000000000000000000000000000000000000000000000008152600401620005909062001067565b60405180910390fd5b620005b082826200061060201b620021b01760201c565b5050565b620005cb8282620006a160201b6200221a1760201c565b620005f781600160008581526020019081526020016000206200079260201b620022fa1790919060201c565b505050565b6000608051905090565b6000600454905090565b62000620620005fc60201b60201c565b81620006366200060660201b62000f3d1760201c565b62000642919062000fba565b111562000686576040517f08c379a00000000000000000000000000000000000000000000000000000000081526004016200067d9062001067565b60405180910390fd5b6200069d8282620007ca60201b6200232a1760201c565b5050565b620006b382826200093860201b60201c565b6200078e57600160008084815260200190815260200160002060000160008373ffffffffffffffffffffffffffffffffffffffff1673ffffffffffffffffffffffffffffffffffffffff16815260200190815260200160002060006101000a81548160ff021916908315150217905550620007336200044460201b60201c565b73ffffffffffffffffffffffffffffffffffffffff168173ffffffffffffffffffffffffffffffffffffffff16837f2f8788117e7eff1d82e926ec794901d17c78024a50270940304540a733656f0d60405160405180910390a45b5050565b6000620007c2836000018373ffffffffffffffffffffffffffffffffffffffff1660001b620009a260201b60201c565b905092915050565b600073ffffffffffffffffffffffffffffffffffffffff168273ffffffffffffffffffffffffffffffffffffffff16036200083c576040517f08c379a00000000000000000000000000000000000000000000000000000000081526004016200083390620010d9565b60405180910390fd5b620008506000838362000a1c60201b60201c565b806004600082825462000864919062000fba565b9250508190555080600260008473ffffffffffffffffffffffffffffffffffffffff1673ffffffffffffffffffffffffffffffffffffffff168152602001908152602001600020600082825401925050819055508173ffffffffffffffffffffffffffffffffffffffff16600073ffffffffffffffffffffffffffffffffffffffff167fddf252ad1be2c89b69c2b068fc378daa952ba7f163c4a11628f55a4df523b3ef836040516200091891906200110c565b60405180910390a3620009346000838362000a3960201b60201c565b5050565b600080600084815260200190815260200160002060000160008373ffffffffffffffffffffffffffffffffffffffff1673ffffffffffffffffffffffffffffffffffffffff16815260200190815260200160002060009054906101000a900460ff16905092915050565b6000620009b6838362000a3e60201b60201c565b62000a1157826000018290806001815401808255809150506001900390600052602060002001600090919091909150558260000180549050836001016000848152602001908152602001600020819055506001905062000a16565b600090505b92915050565b62000a3483838362000a6160201b620024811760201c565b505050565b505050565b600080836001016000848152602001908152602001600020541415905092915050565b62000a7983838362000a7e60201b620024911760201c565b505050565b62000a9683838362000aee60201b620024e91760201c565b62000aa662000af360201b60201c565b1562000ae9576040517f08c379a000000000000000000000000000000000000000000000000000000000815260040162000ae0906200119f565b60405180910390fd5b505050565b505050565b6000600760009054906101000a900460ff16905090565b82805462000b1890620011f0565b90600052602060002090601f01602090048101928262000b3c576000855562000b88565b82601f1062000b5757805160ff191683800117855562000b88565b8280016001018555821562000b88579182015b8281111562000b8757825182559160200191906001019062000b6a565b5b50905062000b97919062000b9b565b5090565b5b8082111562000bb657600081600090555060010162000b9c565b5090565b6000604051905090565b600080fd5b600080fd5b600080fd5b600080fd5b6000601f19601f8301169050919050565b7f4e487b7100000000000000000000000000000000000000000000000000000000600052604160045260246000fd5b62000c238262000bd8565b810181811067ffffffffffffffff8211171562000c455762000c4462000be9565b5b80604052505050565b600062000c5a62000bba565b905062000c68828262000c18565b919050565b600067ffffffffffffffff82111562000c8b5762000c8a62000be9565b5b62000c968262000bd8565b9050602081019050919050565b60005b8381101562000cc357808201518184015260208101905062000ca6565b8381111562000cd3576000848401525b50505050565b600062000cf062000cea8462000c6d565b62000c4e565b90508281526020810184848401111562000d0f5762000d0e62000bd3565b5b62000d1c84828562000ca3565b509392505050565b600082601f83011262000d3c5762000d3b62000bce565b5b815162000d4e84826020860162000cd9565b91505092915050565b6000819050919050565b62000d6c8162000d57565b811462000d7857600080fd5b50565b60008151905062000d8c8162000d61565b92915050565b600073ffffffffffffffffffffffffffffffffffffffff82169050919050565b600062000dbf8262000d92565b9050919050565b62000dd18162000db2565b811462000ddd57600080fd5b50565b60008151905062000df18162000dc6565b92915050565b6000806000806080858703121562000e145762000e1362000bc4565b5b600085015167ffffffffffffffff81111562000e355762000e3462000bc9565b5b62000e438782880162000d24565b945050602085015167ffffffffffffffff81111562000e675762000e6662000bc9565b5b62000e758782880162000d24565b935050604062000e888782880162000d7b565b925050606062000e9b8782880162000de0565b91505092959194509250565b600082825260208201905092915050565b7f45524332304361707065643a2063617020697320300000000000000000000000600082015250565b600062000ef060158362000ea7565b915062000efd8262000eb8565b602082019050919050565b6000602082019050818103600083015262000f238162000ee1565b9050919050565b7f4e487b7100000000000000000000000000000000000000000000000000000000600052601160045260246000fd5b600062000f668262000d57565b915062000f738362000d57565b9250817fffffffffffffffffffffffffffffffffffffffffffffffffffffffffffffffff048311821515161562000faf5762000fae62000f2a565b5b828202905092915050565b600062000fc78262000d57565b915062000fd48362000d57565b9250827fffffffffffffffffffffffffffffffffffffffffffffffffffffffffffffffff038211156200100c576200100b62000f2a565b5b828201905092915050565b7f45524332304361707065643a2063617020657863656564656400000000000000600082015250565b60006200104f60198362000ea7565b91506200105c8262001017565b602082019050919050565b60006020820190508181036000830152620010828162001040565b9050919050565b7f45524332303a206d696e7420746f20746865207a65726f206164647265737300600082015250565b6000620010c1601f8362000ea7565b9150620010ce8262001089565b602082019050919050565b60006020820190508181036000830152620010f481620010b2565b9050919050565b620011068162000d57565b82525050565b6000602082019050620011236000830184620010fb565b92915050565b7f45524332305061757361626c653a20746f6b656e207472616e7366657220776860008201527f696c652070617573656400000000000000000000000000000000000000000000602082015250565b600062001187602a8362000ea7565b9150620011948262001129565b604082019050919050565b60006020820190508181036000830152620011ba8162001178565b9050919050565b7f4e487b7100000000000000000000000000000000000000000000000000000000600052602260045260246000fd5b600060028204905060018216806200120957607f821691505b6020821081036200121f576200121e620011c1565b5b50919050565b608051615a036200124160003960006111280152615a036000f3fe60806040526004361061036f5760003560e01c806375f0a874116101c6578063afc0915e116100f7578063d547741f11610095578063ec0ee44a1161006f578063ec0ee44a14610d05578063f20b951d14610d2e578063f2fde38b14610d57578063fd10417f14610d80576103c4565b8063d547741f14610c74578063dd62ed3e14610c9d578063e63ab1e914610cda576103c4565b8063bff51ef8116100d1578063bff51ef814610bca578063ca15c87314610bf5578063d523e09214610c32578063d539139314610c49576103c4565b8063afc0915e14610b5f578063b0f67dfd14610b88578063b65d08b014610b9f576103c4565b8063959afa1511610164578063a217fddf1161013e578063a217fddf14610a91578063a22d483214610abc578063a457c2d714610ae5578063a9059cbb14610b22576103c4565b8063959afa1514610a1457806395d89b4114610a3d578063983e915814610a68576103c4565b806386270dc8116101a057806386270dc8146109445780638da5cb5b1461096f5780639010d07c1461099a57806391d14854146109d7576103c4565b806375f0a874146108d957806379cc6790146109045780638456cb591461092d576103c4565b806336568abe116102a05780635331803c1161023e57806367243482116102185780636724348214610831578063691f224f1461085a57806370a0823114610885578063715018a6146108c2576103c4565b80635331803c146107ac57806359927044146107db5780635c975abb14610806576103c4565b80633f4ba83a1161027a5780633f4ba83a1461071a57806340c10f191461073157806342966c681461075a578063522f681514610783576103c4565b806336568abe1461067757806339509351146106a05780633bbac579146106dd576103c4565b806324024efd1161030d5780632f2ff15d116102e75780632f2ff15d146105cf578063313ce567146105f8578063342aa8b514610623578063355274ea1461064c576103c4565b806324024efd1461052a578063248a9ca31461055557806327b07d7514610592576103c4565b8063131e00b711610349578063131e00b71461046e57806318160ddd146104975780632059f615146104c257806323b872dd146104ed576103c4565b806301ffc9a7146103c957806306fdde0314610406578063095ea7b314610431576103c4565b366103c4573373ffffffffffffffffffffffffffffffffffffffff167f939e51ac2fd009b158d6344f7e68a83d8d18d9b0cc88cf514aac6aaa9cad2a18346040516103ba9190613bd9565b60405180910390a2005b600080fd5b3480156103d557600080fd5b506103f060048036038101906103eb9190613c60565b610dab565b6040516103fd9190613ca8565b60405180910390f35b34801561041257600080fd5b5061041b610e25565b6040516104289190613d5c565b60405180910390f35b34801561043d57600080fd5b5061045860048036038101906104539190613e08565b610eb7565b6040516104659190613ca8565b60405180910390f35b34801561047a57600080fd5b5061049560048036038101906104909190613e48565b610eda565b005b3480156104a357600080fd5b506104ac610f3d565b6040516104b99190613bd9565b60405180910390f35b3480156104ce57600080fd5b506104d7610f47565b6040516104e49190613bd9565b60405180910390f35b3480156104f957600080fd5b50610514600480360381019061050f9190613e75565b610f4d565b6040516105219190613ca8565b60405180910390f35b34801561053657600080fd5b5061053f610f7c565b60405161054c9190613ee5565b60405180910390f35b34801561056157600080fd5b5061057c60048036038101906105779190613f36565b610f90565b6040516105899190613f72565b60405180910390f35b34801561059e57600080fd5b506105b960048036038101906105b49190613e48565b610faf565b6040516105c69190613ca8565b60405180910390f35b3480156105db57600080fd5b506105f660048036038101906105f19190613f8d565b611005565b005b34801561060457600080fd5b5061060d611026565b60405161061a9190613fe9565b60405180910390f35b34801561062f57600080fd5b5061064a60048036038101906106459190614030565b61102f565b005b34801561065857600080fd5b50610661611124565b60405161066e9190613bd9565b60405180910390f35b34801561068357600080fd5b5061069e60048036038101906106999190613f8d565b61114c565b005b3480156106ac57600080fd5b506106c760048036038101906106c29190613e08565b6111cf565b6040516106d49190613ca8565b60405180910390f35b3480156106e957600080fd5b5061070460048036038101906106ff9190613e48565b611206565b6040516107119190613ca8565b60405180910390f35b34801561072657600080fd5b5061072f61125c565b005b34801561073d57600080fd5b5061075860048036038101906107539190613e08565b6112d6565b005b34801561076657600080fd5b50610781600480360381019061077c9190614070565b611354565b005b34801561078f57600080fd5b506107aa60048036038101906107a59190613e08565b611368565b005b3480156107b857600080fd5b506107c161144c565b6040516107d295949392919061409d565b60405180910390f35b3480156107e757600080fd5b506107f06114b6565b6040516107fd91906140ff565b60405180910390f35b34801561081257600080fd5b5061081b6114dc565b6040516108289190613ca8565b60405180910390f35b34801561083d57600080fd5b5061085860048036038101906108539190614325565b6114f3565b005b34801561086657600080fd5b5061086f61164b565b60405161087c9190613ee5565b60405180910390f35b34801561089157600080fd5b506108ac60048036038101906108a79190613e48565b61165f565b6040516108b99190613bd9565b60405180910390f35b3480156108ce57600080fd5b506108d76116a8565b005b3480156108e557600080fd5b506108ee6116bc565b6040516108fb91906140ff565b60405180910390f35b34801561091057600080fd5b5061092b60048036038101906109269190613e08565b6116e2565b005b34801561093957600080fd5b50610942611702565b005b34801561095057600080fd5b5061095961177c565b6040516109669190613bd9565b60405180910390f35b34801561097b57600080fd5b50610984611782565b60405161099191906140ff565b60405180910390f35b3480156109a657600080fd5b506109c160048036038101906109bc919061439d565b6117ac565b6040516109ce91906140ff565b60405180910390f35b3480156109e357600080fd5b506109fe60048036038101906109f99190613f8d565b6117db565b604051610a0b9190613ca8565b60405180910390f35b348015610a2057600080fd5b50610a3b6004803603810190610a369190614070565b611845565b005b348015610a4957600080fd5b50610a526118ef565b604051610a5f9190613d5c565b60405180910390f35b348015610a7457600080fd5b50610a8f6004803603810190610a8a9190613e48565b611981565b005b348015610a9d57600080fd5b50610aa66119e4565b604051610ab39190613f72565b60405180910390f35b348015610ac857600080fd5b50610ae36004803603810190610ade9190613e48565b6119eb565b005b348015610af157600080fd5b50610b0c6004803603810190610b079190613e08565b611ae9565b604051610b199190613ca8565b60405180910390f35b348015610b2e57600080fd5b50610b496004803603810190610b449190613e08565b611b60565b604051610b569190613ca8565b60405180910390f35b348015610b6b57600080fd5b50610b866004803603810190610b819190614409565b611b83565b005b348015610b9457600080fd5b50610b9d611d35565b005b348015610bab57600080fd5b50610bb4611d8f565b604051610bc19190613ee5565b60405180910390f35b348015610bd657600080fd5b50610bdf611da3565b604051610bec9190613ca8565b60405180910390f35b348015610c0157600080fd5b50610c1c6004803603810190610c179190613f36565b611db6565b604051610c299190613bd9565b60405180910390f35b348015610c3e57600080fd5b50610c47611dda565b005b348015610c5557600080fd5b50610c5e611e34565b604051610c6b9190613f72565b60405180910390f35b348015610c8057600080fd5b50610c9b6004803603810190610c969190613f8d565b611e58565b005b348015610ca957600080fd5b50610cc46004803603810190610cbf9190614484565b611e79565b604051610cd19190613bd9565b60405180910390f35b348015610ce657600080fd5b50610cef611f00565b604051610cfc9190613f72565b60405180910390f35b348015610d1157600080fd5b50610d2c6004803603810190610d2791906144c4565b611f24565b005b348015610d3a57600080fd5b50610d556004803603810190610d509190614517565b612066565b005b348015610d6357600080fd5b50610d7e6004803603810190610d799190613e48565b612103565b005b348015610d8c57600080fd5b50610d95612186565b604051610da29190613ee5565b60405180910390f35b60007f5a05180f000000000000000000000000000000000000000000000000000000007bffffffffffffffffffffffffffffffffffffffffffffffffffffffff1916827bffffffffffffffffffffffffffffffffffffffffffffffffffffffff19161480610e1e5750610e1d826124ee565b5b9050919050565b606060058054610e34906145a2565b80601f0160208091040260200160405190810160405280929190818152602001828054610e60906145a2565b8015610ead5780601f10610e8257610100808354040283529160200191610ead565b820191906000526020600020905b815481529060010190602001808311610e9057829003601f168201915b5050505050905090565b600080610ec2612568565b9050610ecf818585612570565b600191505092915050565b610ee2612739565b6001600f60008373ffffffffffffffffffffffffffffffffffffffff1673ffffffffffffffffffffffffffffffffffffffff16815260200190815260200160002060006101000a81548160ff02191690831515021790555050565b6000600454905090565b600b5481565b600080610f58612568565b9050610f658582856127b7565b610f70858585612843565b60019150509392505050565b600d60029054906101000a900461ffff1681565b6000806000838152602001908152602001600020600101549050919050565b6000600f60008373ffffffffffffffffffffffffffffffffffffffff1673ffffffffffffffffffffffffffffffffffffffff16815260200190815260200160002060009054906101000a900460ff169050919050565b61100e82610f90565b61101781612da1565b6110218383612db5565b505050565b60006012905090565b611037612739565b801515601060008473ffffffffffffffffffffffffffffffffffffffff1673ffffffffffffffffffffffffffffffffffffffff16815260200190815260200160002060009054906101000a900460ff161515036110c9576040517f08c379a00000000000000000000000000000000000000000000000000000000081526004016110c09061461f565b60405180910390fd5b80601060008473ffffffffffffffffffffffffffffffffffffffff1673ffffffffffffffffffffffffffffffffffffffff16815260200190815260200160002060006101000a81548160ff0219169083151502179055505050565b60007f0000000000000000000000000000000000000000000000000000000000000000905090565b611154612568565b73ffffffffffffffffffffffffffffffffffffffff168173ffffffffffffffffffffffffffffffffffffffff16146111c1576040517f08c379a00000000000000000000000000000000000000000000000000000000081526004016111b8906146b1565b60405180910390fd5b6111cb8282612de9565b5050565b6000806111da612568565b90506111fb8185856111ec8589611e79565b6111f69190614700565b612570565b600191505092915050565b6000601060008373ffffffffffffffffffffffffffffffffffffffff1673ffffffffffffffffffffffffffffffffffffffff16815260200190815260200160002060009054906101000a900460ff169050919050565b61128d7f65d7a28e3265b37a6474929f336521b332c1681b933f6cb9f3376673440d862a611288612568565b6117db565b6112cc576040517f08c379a00000000000000000000000000000000000000000000000000000000081526004016112c3906147c8565b60405180910390fd5b6112d4612e1d565b565b6113077f9f2df0fed2c77648de5860a4cc508cd0818c85b8b8a1ab4ceeef8d981c8956a6611302612568565b6117db565b611346576040517f08c379a000000000000000000000000000000000000000000000000000000000815260040161133d9061485a565b60405180910390fd5b6113508282612e80565b5050565b61136561135f612568565b82612eea565b50565b611370612739565b478111156113b3576040517f08c379a00000000000000000000000000000000000000000000000000000000081526004016113aa906148c6565b60405180910390fd5b8173ffffffffffffffffffffffffffffffffffffffff166108fc829081150290604051600060405180830381858888f193505050501580156113f9573d6000803e3d6000fd5b508173ffffffffffffffffffffffffffffffffffffffff167f06097061aeda806b5e9cb4133d9899f332ff0913956567fc0f7ea15e3d19947c826040516114409190613bd9565b60405180910390a25050565b600e8060000160009054906101000a900461ffff16908060000160029054906101000a900461ffff16908060000160049054906101000a900461ffff16908060000160069054906101000a900461ffff16908060000160089054906101000a900461ffff16905085565b600960009054906101000a900473ffffffffffffffffffffffffffffffffffffffff1681565b6000600760009054906101000a900460ff16905090565b6114fb612739565b805182511461153f576040517f08c379a000000000000000000000000000000000000000000000000000000000815260040161153690614932565b60405180910390fd5b60005b82518110156116465760008282815181106115605761155f614952565b5b60200260200101519050600081116115ad576040517f08c379a00000000000000000000000000000000000000000000000000000000081526004016115a4906149f3565b60405180910390fd5b600c548111156115f2576040517f08c379a00000000000000000000000000000000000000000000000000000000081526004016115e990614a85565b60405180910390fd5b6116173085848151811061160957611608614952565b5b602002602001015183612843565b61162c81600c546130b990919063ffffffff16565b600c8190555050808061163e90614aa5565b915050611542565b505050565b600d60009054906101000a900461ffff1681565b6000600260008373ffffffffffffffffffffffffffffffffffffffff1673ffffffffffffffffffffffffffffffffffffffff168152602001908152602001600020549050919050565b6116b0612739565b6116ba60006130cf565b565b600860009054906101000a900473ffffffffffffffffffffffffffffffffffffffff1681565b6116f4826116ee612568565b836127b7565b6116fe8282612eea565b5050565b6117337f65d7a28e3265b37a6474929f336521b332c1681b933f6cb9f3376673440d862a61172e612568565b6117db565b611772576040517f08c379a000000000000000000000000000000000000000000000000000000000815260040161176990614b5f565b60405180910390fd5b61177a613195565b565b600c5481565b6000600760019054906101000a900473ffffffffffffffffffffffffffffffffffffffff16905090565b60006117d382600160008681526020019081526020016000206131f890919063ffffffff16565b905092915050565b600080600084815260200190815260200160002060000160008373ffffffffffffffffffffffffffffffffffffffff1673ffffffffffffffffffffffffffffffffffffffff16815260200190815260200160002060009054906101000a900460ff16905092915050565b61184d612739565b600b54811115611892576040517f08c379a000000000000000000000000000000000000000000000000000000000815260040161188990614bcb565b60405180910390fd5b6118a781600b546130b990919063ffffffff16565b600b819055506118bf306118b9611782565b83612843565b807fe494cfe8f7dcbb3a114ab6de6e86ababbf58e7bc5c62681ca0a23d56d206030360405160405180910390a250565b6060600680546118fe906145a2565b80601f016020809104026020016040519081016040528092919081815260200182805461192a906145a2565b80156119775780601f1061194c57610100808354040283529160200191611977565b820191906000526020600020905b81548152906001019060200180831161195a57829003601f168201915b5050505050905090565b611989612739565b6000600f60008373ffffffffffffffffffffffffffffffffffffffff1673ffffffffffffffffffffffffffffffffffffffff16815260200190815260200160002060006101000a81548160ff02191690831515021790555050565b6000801b81565b6119f3612739565b600073ffffffffffffffffffffffffffffffffffffffff168173ffffffffffffffffffffffffffffffffffffffff1603611a62576040517f08c379a0000000000000000000000000000000000000000000000000000000008152600401611a5990614c5d565b60405180910390fd5b80600d60086101000a81548173ffffffffffffffffffffffffffffffffffffffff021916908373ffffffffffffffffffffffffffffffffffffffff1602179055508073ffffffffffffffffffffffffffffffffffffffff167f4e3030e9edccd17d8523d7758504e05107219cb7c6a736b63a8260722b3cebde60405160405180910390a250565b600080611af4612568565b90506000611b028286611e79565b905083811015611b47576040517f08c379a0000000000000000000000000000000000000000000000000000000008152600401611b3e90614cef565b60405180910390fd5b611b548286868403612570565b60019250505092915050565b600080611b6b612568565b9050611b78818585612843565b600191505092915050565b611b8b612739565b6103e88183858789611b9d9190614d0f565b611ba79190614d0f565b611bb19190614d0f565b611bbb9190614d0f565b61ffff161115611c00576040517f08c379a0000000000000000000000000000000000000000000000000000000008152600401611bf790614d93565b60405180910390fd5b6040518060a001604052808661ffff1681526020018561ffff1681526020018461ffff1681526020018361ffff1681526020018261ffff16815250600e60008201518160000160006101000a81548161ffff021916908361ffff16021790555060208201518160000160026101000a81548161ffff021916908361ffff16021790555060408201518160000160046101000a81548161ffff021916908361ffff16021790555060608201518160000160066101000a81548161ffff021916908361ffff16021790555060808201518160000160086101000a81548161ffff021916908361ffff1602179055509050507fd8ea46ad0464447fe15979595c9a64212ad4227bb43e905fdeb65957fa7bed128585858585604051611d2695949392919061409d565b60405180910390a15050505050565b611d3d612739565b6001600d601c6101000a81548160ff0219169083151502179055507f5064f62a5e5a1fbb66d81ede651b8d28f7122ca6f28a4118a1ca3ed049b2ca41604051611d8590614dff565b60405180910390a1565b600d60049054906101000a900461ffff1681565b600d601c9054906101000a900460ff1681565b6000611dd360016000848152602001908152602001600020613212565b9050919050565b611de2612739565b6000600d601c6101000a81548160ff0219169083151502179055507faae029824d4f82527a6503070af4f44ceef30b4362d7a1017fce13877b7490d4604051611e2a90614e6b565b60405180910390a1565b7f9f2df0fed2c77648de5860a4cc508cd0818c85b8b8a1ab4ceeef8d981c8956a681565b611e6182610f90565b611e6a81612da1565b611e748383612de9565b505050565b6000600360008473ffffffffffffffffffffffffffffffffffffffff1673ffffffffffffffffffffffffffffffffffffffff16815260200190815260200160002060008373ffffffffffffffffffffffffffffffffffffffff1673ffffffffffffffffffffffffffffffffffffffff16815260200190815260200160002054905092915050565b7f65d7a28e3265b37a6474929f336521b332c1681b933f6cb9f3376673440d862a81565b611f2c612739565b600d60069054906101000a900461ffff1661ffff168361ffff1611158015611f6c5750600d60069054906101000a900461ffff1661ffff168261ffff1611155b8015611f905750600d60069054906101000a900461ffff1661ffff168161ffff1611155b611fcf576040517f08c379a0000000000000000000000000000000000000000000000000000000008152600401611fc690614ed7565b60405180910390fd5b82600d60006101000a81548161ffff021916908361ffff16021790555081600d60026101000a81548161ffff021916908361ffff16021790555080600d60046101000a81548161ffff021916908361ffff1602179055508061ffff168261ffff168461ffff167f795d3584bf714bce2bc52e6fea3d18fc68a8299251d265f33e90d32db68222d060405160405180910390a4505050565b61206e612739565b60005b82518110156120fe57816010600085848151811061209257612091614952565b5b602002602001015173ffffffffffffffffffffffffffffffffffffffff1673ffffffffffffffffffffffffffffffffffffffff16815260200190815260200160002060006101000a81548160ff02191690831515021790555080806120f690614aa5565b915050612071565b505050565b61210b612739565b600073ffffffffffffffffffffffffffffffffffffffff168173ffffffffffffffffffffffffffffffffffffffff160361217a576040517f08c379a000000000000000000000000000000000000000000000000000000000815260040161217190614f69565b60405180910390fd5b612183816130cf565b50565b600d60069054906101000a900461ffff1681565b600081836121a89190614f89565b905092915050565b6121b8611124565b816121c1610f3d565b6121cb9190614700565b111561220c576040517f08c379a00000000000000000000000000000000000000000000000000000000081526004016122039061502f565b60405180910390fd5b612216828261232a565b5050565b61222482826117db565b6122f657600160008084815260200190815260200160002060000160008373ffffffffffffffffffffffffffffffffffffffff1673ffffffffffffffffffffffffffffffffffffffff16815260200190815260200160002060006101000a81548160ff02191690831515021790555061229b612568565b73ffffffffffffffffffffffffffffffffffffffff168173ffffffffffffffffffffffffffffffffffffffff16837f2f8788117e7eff1d82e926ec794901d17c78024a50270940304540a733656f0d60405160405180910390a45b5050565b6000612322836000018373ffffffffffffffffffffffffffffffffffffffff1660001b613227565b905092915050565b600073ffffffffffffffffffffffffffffffffffffffff168273ffffffffffffffffffffffffffffffffffffffff1603612399576040517f08c379a00000000000000000000000000000000000000000000000000000000081526004016123909061509b565b60405180910390fd5b6123a560008383613297565b80600460008282546123b79190614700565b9250508190555080600260008473ffffffffffffffffffffffffffffffffffffffff1673ffffffffffffffffffffffffffffffffffffffff168152602001908152602001600020600082825401925050819055508173ffffffffffffffffffffffffffffffffffffffff16600073ffffffffffffffffffffffffffffffffffffffff167fddf252ad1be2c89b69c2b068fc378daa952ba7f163c4a11628f55a4df523b3ef836040516124699190613bd9565b60405180910390a361247d600083836132a7565b5050565b61248c838383612491565b505050565b61249c8383836124e9565b6124a46114dc565b156124e4576040517f08c379a00000000000000000000000000000000000000000000000000000000081526004016124db9061512d565b60405180910390fd5b505050565b505050565b60007f7965db0b000000000000000000000000000000000000000000000000000000007bffffffffffffffffffffffffffffffffffffffffffffffffffffffff1916827bffffffffffffffffffffffffffffffffffffffffffffffffffffffff191614806125615750612560826132ac565b5b9050919050565b600033905090565b600073ffffffffffffffffffffffffffffffffffffffff168373ffffffffffffffffffffffffffffffffffffffff16036125df576040517f08c379a00000000000000000000000000000000000000000000000000000000081526004016125d6906151bf565b60405180910390fd5b600073ffffffffffffffffffffffffffffffffffffffff168273ffffffffffffffffffffffffffffffffffffffff160361264e576040517f08c379a000000000000000000000000000000000000000000000000000000000815260040161264590615251565b60405180910390fd5b80600360008573ffffffffffffffffffffffffffffffffffffffff1673ffffffffffffffffffffffffffffffffffffffff16815260200190815260200160002060008473ffffffffffffffffffffffffffffffffffffffff1673ffffffffffffffffffffffffffffffffffffffff168152602001908152602001600020819055508173ffffffffffffffffffffffffffffffffffffffff168373ffffffffffffffffffffffffffffffffffffffff167f8c5be1e5ebec7d5bd14f71427d1e84f3dd0314c0f7b2291e5b200ac8c7c3b9258360405161272c9190613bd9565b60405180910390a3505050565b612741612568565b73ffffffffffffffffffffffffffffffffffffffff1661275f611782565b73ffffffffffffffffffffffffffffffffffffffff16146127b5576040517f08c379a00000000000000000000000000000000000000000000000000000000081526004016127ac906152bd565b60405180910390fd5b565b60006127c38484611e79565b90507fffffffffffffffffffffffffffffffffffffffffffffffffffffffffffffffff811461283d578181101561282f576040517f08c379a000000000000000000000000000000000000000000000000000000000815260040161282690615329565b60405180910390fd5b61283c8484848403612570565b5b50505050565b601060008473ffffffffffffffffffffffffffffffffffffffff1673ffffffffffffffffffffffffffffffffffffffff16815260200190815260200160002060009054906101000a900460ff16156128d0576040517f08c379a00000000000000000000000000000000000000000000000000000000081526004016128c790615395565b60405180910390fd5b600d601c9054906101000a900460ff1615612d90576000600d60089054906101000a900473ffffffffffffffffffffffffffffffffffffffff1673ffffffffffffffffffffffffffffffffffffffff168473ffffffffffffffffffffffffffffffffffffffff160361297e576129776103e8612969600d60009054906101000a900461ffff1661ffff168561219a90919063ffffffff16565b61331690919063ffffffff16565b9050612a54565b600d60089054906101000a900473ffffffffffffffffffffffffffffffffffffffff1673ffffffffffffffffffffffffffffffffffffffff168373ffffffffffffffffffffffffffffffffffffffff1603612a1557612a0e6103e8612a00600d60029054906101000a900461ffff1661ffff168561219a90919063ffffffff16565b61331690919063ffffffff16565b9050612a53565b612a506103e8612a42600d60049054906101000a900461ffff1661ffff168561219a90919063ffffffff16565b61331690919063ffffffff16565b90505b5b600f60008573ffffffffffffffffffffffffffffffffffffffff1673ffffffffffffffffffffffffffffffffffffffff16815260200190815260200160002060009054906101000a900460ff16158015612af85750600f60008473ffffffffffffffffffffffffffffffffffffffff1673ffffffffffffffffffffffffffffffffffffffff16815260200190815260200160002060009054906101000a900460ff16155b15612d7e576000612b1282846130b990919063ffffffff16565b9050612b66612b556103e8612b47600e60000160069054906101000a900461ffff1661ffff168661219a90919063ffffffff16565b61331690919063ffffffff16565b600c5461332c90919063ffffffff16565b600c81905550612bbe612bad6103e8612b9f600e60000160089054906101000a900461ffff1661ffff168661219a90919063ffffffff16565b61331690919063ffffffff16565b600b5461332c90919063ffffffff16565b600b81905550612c2e85600960009054906101000a900473ffffffffffffffffffffffffffffffffffffffff16612c296103e8612c1b600e60000160049054906101000a900461ffff1661ffff168861219a90919063ffffffff16565b61331690919063ffffffff16565b613342565b612c9885600860009054906101000a900473ffffffffffffffffffffffffffffffffffffffff16612c936103e8612c85600e60000160009054906101000a900461ffff1661ffff168861219a90919063ffffffff16565b61331690919063ffffffff16565b613342565b612d268530612d21612cde6103e8612cd0600e60000160089054906101000a900461ffff1661ffff168961219a90919063ffffffff16565b61331690919063ffffffff16565b612d1c6103e8612d0e600e60000160069054906101000a900461ffff1661ffff168a61219a90919063ffffffff16565b61331690919063ffffffff16565b61332c565b613342565b612d6d85612d686103e8612d5a600e60000160029054906101000a900461ffff1661ffff168761219a90919063ffffffff16565b61331690919063ffffffff16565b612eea565b612d78858583613342565b50612d8a565b612d89848484613342565b5b50612d9c565b612d9b838383613342565b5b505050565b612db281612dad612568565b6135bb565b50565b612dbf828261221a565b612de481600160008581526020019081526020016000206122fa90919063ffffffff16565b505050565b612df38282613640565b612e18816001600085815260200190815260200160002061372190919063ffffffff16565b505050565b612e25613751565b6000600760006101000a81548160ff0219169083151502179055507f5db9ee0a495bf2e6ff9c91a7834c1ba4fdd244a5e8aa4e537bd38aeae4b073aa612e69612568565b604051612e7691906140ff565b60405180910390a1565b612e88611124565b81612e91610f3d565b612e9b9190614700565b1115612edc576040517f08c379a0000000000000000000000000000000000000000000000000000000008152600401612ed39061502f565b60405180910390fd5b612ee682826121b0565b5050565b600073ffffffffffffffffffffffffffffffffffffffff168273ffffffffffffffffffffffffffffffffffffffff1603612f59576040517f08c379a0000000000000000000000000000000000000000000000000000000008152600401612f5090615427565b60405180910390fd5b612f6582600083613297565b6000600260008473ffffffffffffffffffffffffffffffffffffffff1673ffffffffffffffffffffffffffffffffffffffff16815260200190815260200160002054905081811015612fec576040517f08c379a0000000000000000000000000000000000000000000000000000000008152600401612fe3906154b9565b60405180910390fd5b818103600260008573ffffffffffffffffffffffffffffffffffffffff1673ffffffffffffffffffffffffffffffffffffffff1681526020019081526020016000208190555081600460008282540392505081905550600073ffffffffffffffffffffffffffffffffffffffff168373ffffffffffffffffffffffffffffffffffffffff167fddf252ad1be2c89b69c2b068fc378daa952ba7f163c4a11628f55a4df523b3ef846040516130a09190613bd9565b60405180910390a36130b4836000846132a7565b505050565b600081836130c791906154d9565b905092915050565b6000600760019054906101000a900473ffffffffffffffffffffffffffffffffffffffff16905081600760016101000a81548173ffffffffffffffffffffffffffffffffffffffff021916908373ffffffffffffffffffffffffffffffffffffffff1602179055508173ffffffffffffffffffffffffffffffffffffffff168173ffffffffffffffffffffffffffffffffffffffff167f8be0079c531659141344cd1fd0a4f28419497f9722a3daafe3b4186f6b6457e060405160405180910390a35050565b61319d61379a565b6001600760006101000a81548160ff0219169083151502179055507f62e78cea01bee320cd4e420270b5ea74000d11b0c9f74754ebdbfc544b05a2586131e1612568565b6040516131ee91906140ff565b60405180910390a1565b600061320783600001836137e4565b60001c905092915050565b60006132208260000161380f565b9050919050565b60006132338383613820565b61328c578260000182908060018154018082558091505060019003906000526020600020016000909190919091505582600001805490508360010160008481526020019081526020016000208190555060019050613291565b600090505b92915050565b6132a2838383612481565b505050565b505050565b60007f01ffc9a7000000000000000000000000000000000000000000000000000000007bffffffffffffffffffffffffffffffffffffffffffffffffffffffff1916827bffffffffffffffffffffffffffffffffffffffffffffffffffffffff1916149050919050565b60008183613324919061553c565b905092915050565b6000818361333a9190614700565b905092915050565b600073ffffffffffffffffffffffffffffffffffffffff168373ffffffffffffffffffffffffffffffffffffffff16036133b1576040517f08c379a00000000000000000000000000000000000000000000000000000000081526004016133a8906155df565b60405180910390fd5b600073ffffffffffffffffffffffffffffffffffffffff168273ffffffffffffffffffffffffffffffffffffffff1603613420576040517f08c379a000000000000000000000000000000000000000000000000000000000815260040161341790615671565b60405180910390fd5b61342b838383613297565b6000600260008573ffffffffffffffffffffffffffffffffffffffff1673ffffffffffffffffffffffffffffffffffffffff168152602001908152602001600020549050818110156134b2576040517f08c379a00000000000000000000000000000000000000000000000000000000081526004016134a990615703565b60405180910390fd5b818103600260008673ffffffffffffffffffffffffffffffffffffffff1673ffffffffffffffffffffffffffffffffffffffff1681526020019081526020016000208190555081600260008573ffffffffffffffffffffffffffffffffffffffff1673ffffffffffffffffffffffffffffffffffffffff168152602001908152602001600020600082825401925050819055508273ffffffffffffffffffffffffffffffffffffffff168473ffffffffffffffffffffffffffffffffffffffff167fddf252ad1be2c89b69c2b068fc378daa952ba7f163c4a11628f55a4df523b3ef846040516135a29190613bd9565b60405180910390a36135b58484846132a7565b50505050565b6135c582826117db565b61363c576135d281613843565b6135e08360001c6020613870565b6040516020016135f19291906157f7565b6040516020818303038152906040526040517f08c379a00000000000000000000000000000000000000000000000000000000081526004016136339190613d5c565b60405180910390fd5b5050565b61364a82826117db565b1561371d57600080600084815260200190815260200160002060000160008373ffffffffffffffffffffffffffffffffffffffff1673ffffffffffffffffffffffffffffffffffffffff16815260200190815260200160002060006101000a81548160ff0219169083151502179055506136c2612568565b73ffffffffffffffffffffffffffffffffffffffff168173ffffffffffffffffffffffffffffffffffffffff16837ff6391f5c32d9c69d2a47ea670b442974b53935d1edc7fd64eb21e047a839171b60405160405180910390a45b5050565b6000613749836000018373ffffffffffffffffffffffffffffffffffffffff1660001b613aac565b905092915050565b6137596114dc565b613798576040517f08c379a000000000000000000000000000000000000000000000000000000000815260040161378f9061587d565b60405180910390fd5b565b6137a26114dc565b156137e2576040517f08c379a00000000000000000000000000000000000000000000000000000000081526004016137d9906158e9565b60405180910390fd5b565b60008260000182815481106137fc576137fb614952565b5b9060005260206000200154905092915050565b600081600001805490509050919050565b600080836001016000848152602001908152602001600020541415905092915050565b60606138698273ffffffffffffffffffffffffffffffffffffffff16601460ff16613870565b9050919050565b6060600060028360026138839190614f89565b61388d9190614700565b67ffffffffffffffff8111156138a6576138a561411f565b5b6040519080825280601f01601f1916602001820160405280156138d85781602001600182028036833780820191505090505b5090507f3000000000000000000000000000000000000000000000000000000000000000816000815181106139105761390f614952565b5b60200101907effffffffffffffffffffffffffffffffffffffffffffffffffffffffffffff1916908160001a9053507f78000000000000000000000000000000000000000000000000000000000000008160018151811061397457613973614952565b5b60200101907effffffffffffffffffffffffffffffffffffffffffffffffffffffffffffff1916908160001a905350600060018460026139b49190614f89565b6139be9190614700565b90505b6001811115613a5e577f3031323334353637383961626364656600000000000000000000000000000000600f861660108110613a00576139ff614952565b5b1a60f81b828281518110613a1757613a16614952565b5b60200101907effffffffffffffffffffffffffffffffffffffffffffffffffffffffffffff1916908160001a905350600485901c945080613a5790615909565b90506139c1565b5060008414613aa2576040517f08c379a0000000000000000000000000000000000000000000000000000000008152600401613a999061597e565b60405180910390fd5b8091505092915050565b60008083600101600084815260200190815260200160002054905060008114613bb4576000600182613ade91906154d9565b9050600060018660000180549050613af691906154d9565b9050818114613b65576000866000018281548110613b1757613b16614952565b5b9060005260206000200154905080876000018481548110613b3b57613b3a614952565b5b90600052602060002001819055508387600101600083815260200190815260200160002081905550505b85600001805480613b7957613b7861599e565b5b600190038181906000526020600020016000905590558560010160008681526020019081526020016000206000905560019350505050613bba565b60009150505b92915050565b6000819050919050565b613bd381613bc0565b82525050565b6000602082019050613bee6000830184613bca565b92915050565b6000604051905090565b600080fd5b600080fd5b60007fffffffff0000000000000000000000000000000000000000000000000000000082169050919050565b613c3d81613c08565b8114613c4857600080fd5b50565b600081359050613c5a81613c34565b92915050565b600060208284031215613c7657613c75613bfe565b5b6000613c8484828501613c4b565b91505092915050565b60008115159050919050565b613ca281613c8d565b82525050565b6000602082019050613cbd6000830184613c99565b92915050565b600081519050919050565b600082825260208201905092915050565b60005b83811015613cfd578082015181840152602081019050613ce2565b83811115613d0c576000848401525b50505050565b6000601f19601f8301169050919050565b6000613d2e82613cc3565b613d388185613cce565b9350613d48818560208601613cdf565b613d5181613d12565b840191505092915050565b60006020820190508181036000830152613d768184613d23565b905092915050565b600073ffffffffffffffffffffffffffffffffffffffff82169050919050565b6000613da982613d7e565b9050919050565b613db981613d9e565b8114613dc457600080fd5b50565b600081359050613dd681613db0565b92915050565b613de581613bc0565b8114613df057600080fd5b50565b600081359050613e0281613ddc565b92915050565b60008060408385031215613e1f57613e1e613bfe565b5b6000613e2d85828601613dc7565b9250506020613e3e85828601613df3565b9150509250929050565b600060208284031215613e5e57613e5d613bfe565b5b6000613e6c84828501613dc7565b91505092915050565b600080600060608486031215613e8e57613e8d613bfe565b5b6000613e9c86828701613dc7565b9350506020613ead86828701613dc7565b9250506040613ebe86828701613df3565b9150509250925092565b600061ffff82169050919050565b613edf81613ec8565b82525050565b6000602082019050613efa6000830184613ed6565b92915050565b6000819050919050565b613f1381613f00565b8114613f1e57600080fd5b50565b600081359050613f3081613f0a565b92915050565b600060208284031215613f4c57613f4b613bfe565b5b6000613f5a84828501613f21565b91505092915050565b613f6c81613f00565b82525050565b6000602082019050613f876000830184613f63565b92915050565b60008060408385031215613fa457613fa3613bfe565b5b6000613fb285828601613f21565b9250506020613fc385828601613dc7565b9150509250929050565b600060ff82169050919050565b613fe381613fcd565b82525050565b6000602082019050613ffe6000830184613fda565b92915050565b61400d81613c8d565b811461401857600080fd5b50565b60008135905061402a81614004565b92915050565b6000806040838503121561404757614046613bfe565b5b600061405585828601613dc7565b92505060206140668582860161401b565b9150509250929050565b60006020828403121561408657614085613bfe565b5b600061409484828501613df3565b91505092915050565b600060a0820190506140b26000830188613ed6565b6140bf6020830187613ed6565b6140cc6040830186613ed6565b6140d96060830185613ed6565b6140e66080830184613ed6565b9695505050505050565b6140f981613d9e565b82525050565b600060208201905061411460008301846140f0565b92915050565b600080fd5b7f4e487b7100000000000000000000000000000000000000000000000000000000600052604160045260246000fd5b61415782613d12565b810181811067ffffffffffffffff821117156141765761417561411f565b5b80604052505050565b6000614189613bf4565b9050614195828261414e565b919050565b600067ffffffffffffffff8211156141b5576141b461411f565b5b602082029050602081019050919050565b600080fd5b60006141de6141d98461419a565b61417f565b90508083825260208201905060208402830185811115614201576142006141c6565b5b835b8181101561422a57806142168882613dc7565b845260208401935050602081019050614203565b5050509392505050565b600082601f8301126142495761424861411a565b5b81356142598482602086016141cb565b91505092915050565b600067ffffffffffffffff82111561427d5761427c61411f565b5b602082029050602081019050919050565b60006142a161429c84614262565b61417f565b905080838252602082019050602084028301858111156142c4576142c36141c6565b5b835b818110156142ed57806142d98882613df3565b8452602084019350506020810190506142c6565b5050509392505050565b600082601f83011261430c5761430b61411a565b5b813561431c84826020860161428e565b91505092915050565b6000806040838503121561433c5761433b613bfe565b5b600083013567ffffffffffffffff81111561435a57614359613c03565b5b61436685828601614234565b925050602083013567ffffffffffffffff81111561438757614386613c03565b5b614393858286016142f7565b9150509250929050565b600080604083850312156143b4576143b3613bfe565b5b60006143c285828601613f21565b92505060206143d385828601613df3565b9150509250929050565b6143e681613ec8565b81146143f157600080fd5b50565b600081359050614403816143dd565b92915050565b600080600080600060a0868803121561442557614424613bfe565b5b6000614433888289016143f4565b9550506020614444888289016143f4565b9450506040614455888289016143f4565b9350506060614466888289016143f4565b9250506080614477888289016143f4565b9150509295509295909350565b6000806040838503121561449b5761449a613bfe565b5b60006144a985828601613dc7565b92505060206144ba85828601613dc7565b9150509250929050565b6000806000606084860312156144dd576144dc613bfe565b5b60006144eb868287016143f4565b93505060206144fc868287016143f4565b925050604061450d868287016143f4565b9150509250925092565b6000806040838503121561452e5761452d613bfe565b5b600083013567ffffffffffffffff81111561454c5761454b613c03565b5b61455885828601614234565b92505060206145698582860161401b565b9150509250929050565b7f4e487b7100000000000000000000000000000000000000000000000000000000600052602260045260246000fd5b600060028204905060018216806145ba57607f821691505b6020821081036145cd576145cc614573565b5b50919050565b7f56616c756520616c726561647920736574000000000000000000000000000000600082015250565b6000614609601183613cce565b9150614614826145d3565b602082019050919050565b60006020820190508181036000830152614638816145fc565b9050919050565b7f416363657373436f6e74726f6c3a2063616e206f6e6c792072656e6f756e636560008201527f20726f6c657320666f722073656c660000000000000000000000000000000000602082015250565b600061469b602f83613cce565b91506146a68261463f565b604082019050919050565b600060208201905081810360008301526146ca8161468e565b9050919050565b7f4e487b7100000000000000000000000000000000000000000000000000000000600052601160045260246000fd5b600061470b82613bc0565b915061471683613bc0565b9250827fffffffffffffffffffffffffffffffffffffffffffffffffffffffffffffffff0382111561474b5761474a6146d1565b5b828201905092915050565b7f45524332305072657365744d696e7465725061757365723a206d75737420686160008201527f76652070617573657220726f6c6520746f20756e706175736500000000000000602082015250565b60006147b2603983613cce565b91506147bd82614756565b604082019050919050565b600060208201905081810360008301526147e1816147a5565b9050919050565b7f45524332305072657365744d696e7465725061757365723a206d75737420686160008201527f7665206d696e74657220726f6c6520746f206d696e7400000000000000000000602082015250565b6000614844603683613cce565b915061484f826147e8565b604082019050919050565b6000602082019050818103600083015261487381614837565b9050919050565b7f496e73756666696369656e742062616c616e6365000000000000000000000000600082015250565b60006148b0601483613cce565b91506148bb8261487a565b602082019050919050565b600060208201905081810360008301526148df816148a3565b9050919050565b7f4d69736d61746368656420617272617973206c656e6774680000000000000000600082015250565b600061491c601883613cce565b9150614927826148e6565b602082019050919050565b6000602082019050818103600083015261494b8161490f565b9050919050565b7f4e487b7100000000000000000000000000000000000000000000000000000000600052603260045260246000fd5b7f41697264726f7020616d6f756e74206d7573742062652067726561746572207460008201527f68616e2030000000000000000000000000000000000000000000000000000000602082015250565b60006149dd602583613cce565b91506149e882614981565b604082019050919050565b60006020820190508181036000830152614a0c816149d0565b9050919050565b7f496e73756666696369656e74207265646973747269627574696f6e2062616c6160008201527f6e63650000000000000000000000000000000000000000000000000000000000602082015250565b6000614a6f602383613cce565b9150614a7a82614a13565b604082019050919050565b60006020820190508181036000830152614a9e81614a62565b9050919050565b6000614ab082613bc0565b91507fffffffffffffffffffffffffffffffffffffffffffffffffffffffffffffffff8203614ae257614ae16146d1565b5b600182019050919050565b7f45524332305072657365744d696e7465725061757365723a206d75737420686160008201527f76652070617573657220726f6c6520746f207061757365000000000000000000602082015250565b6000614b49603783613cce565b9150614b5482614aed565b604082019050919050565b60006020820190508181036000830152614b7881614b3c565b9050919050565b7f496e73756666696369656e74204c502062616c616e6365000000000000000000600082015250565b6000614bb5601783613cce565b9150614bc082614b7f565b602082019050919050565b60006020820190508181036000830152614be481614ba8565b9050919050565b7f447261676f6e436f696e3a205061697220616464726573732063616e6e6f742060008201527f6265207a65726f20616464726573730000000000000000000000000000000000602082015250565b6000614c47602f83613cce565b9150614c5282614beb565b604082019050919050565b60006020820190508181036000830152614c7681614c3a565b9050919050565b7f45524332303a2064656372656173656420616c6c6f77616e63652062656c6f7760008201527f207a65726f000000000000000000000000000000000000000000000000000000602082015250565b6000614cd9602583613cce565b9150614ce482614c7d565b604082019050919050565b60006020820190508181036000830152614d0881614ccc565b9050919050565b6000614d1a82613ec8565b9150614d2583613ec8565b92508261ffff03821115614d3c57614d3b6146d1565b5b828201905092915050565b7f546f74616c2074617865732063616e6e6f742065786365656420313030250000600082015250565b6000614d7d601e83613cce565b9150614d8882614d47565b602082019050919050565b60006020820190508181036000830152614dac81614d70565b9050919050565b7f546178657320617265206e6f7720656e61626c65642e00000000000000000000600082015250565b6000614de9601683613cce565b9150614df482614db3565b602082019050919050565b60006020820190508181036000830152614e1881614ddc565b9050919050565b7f546178657320617265206e6f772064697361626c65642e000000000000000000600082015250565b6000614e55601783613cce565b9150614e6082614e1f565b602082019050919050565b60006020820190508181036000830152614e8481614e48565b9050919050565b7f496e76616c696420746178207261746500000000000000000000000000000000600082015250565b6000614ec1601083613cce565b9150614ecc82614e8b565b602082019050919050565b60006020820190508181036000830152614ef081614eb4565b9050919050565b7f4f776e61626c653a206e6577206f776e657220697320746865207a65726f206160008201527f6464726573730000000000000000000000000000000000000000000000000000602082015250565b6000614f53602683613cce565b9150614f5e82614ef7565b604082019050919050565b60006020820190508181036000830152614f8281614f46565b9050919050565b6000614f9482613bc0565b9150614f9f83613bc0565b9250817fffffffffffffffffffffffffffffffffffffffffffffffffffffffffffffffff0483118215151615614fd857614fd76146d1565b5b828202905092915050565b7f45524332304361707065643a2063617020657863656564656400000000000000600082015250565b6000615019601983613cce565b915061502482614fe3565b602082019050919050565b600060208201905081810360008301526150488161500c565b9050919050565b7f45524332303a206d696e7420746f20746865207a65726f206164647265737300600082015250565b6000615085601f83613cce565b91506150908261504f565b602082019050919050565b600060208201905081810360008301526150b481615078565b9050919050565b7f45524332305061757361626c653a20746f6b656e207472616e7366657220776860008201527f696c652070617573656400000000000000000000000000000000000000000000602082015250565b6000615117602a83613cce565b9150615122826150bb565b604082019050919050565b600060208201905081810360008301526151468161510a565b9050919050565b7f45524332303a20617070726f76652066726f6d20746865207a65726f2061646460008201527f7265737300000000000000000000000000000000000000000000000000000000602082015250565b60006151a9602483613cce565b91506151b48261514d565b604082019050919050565b600060208201905081810360008301526151d88161519c565b9050919050565b7f45524332303a20617070726f766520746f20746865207a65726f20616464726560008201527f7373000000000000000000000000000000000000000000000000000000000000602082015250565b600061523b602283613cce565b9150615246826151df565b604082019050919050565b6000602082019050818103600083015261526a8161522e565b9050919050565b7f4f776e61626c653a2063616c6c6572206973206e6f7420746865206f776e6572600082015250565b60006152a7602083613cce565b91506152b282615271565b602082019050919050565b600060208201905081810360008301526152d68161529a565b9050919050565b7f45524332303a20696e73756666696369656e7420616c6c6f77616e6365000000600082015250565b6000615313601d83613cce565b915061531e826152dd565b602082019050919050565b6000602082019050818103600083015261534281615306565b9050919050565b7f596f7520617265206964656e746966696564206173206120626f740000000000600082015250565b600061537f601b83613cce565b915061538a82615349565b602082019050919050565b600060208201905081810360008301526153ae81615372565b9050919050565b7f45524332303a206275726e2066726f6d20746865207a65726f2061646472657360008201527f7300000000000000000000000000000000000000000000000000000000000000602082015250565b6000615411602183613cce565b915061541c826153b5565b604082019050919050565b6000602082019050818103600083015261544081615404565b9050919050565b7f45524332303a206275726e20616d6f756e7420657863656564732062616c616e60008201527f6365000000000000000000000000000000000000000000000000000000000000602082015250565b60006154a3602283613cce565b91506154ae82615447565b604082019050919050565b600060208201905081810360008301526154d281615496565b9050919050565b60006154e482613bc0565b91506154ef83613bc0565b925082821015615502576155016146d1565b5b828203905092915050565b7f4e487b7100000000000000000000000000000000000000000000000000000000600052601260045260246000fd5b600061554782613bc0565b915061555283613bc0565b9250826155625761556161550d565b5b828204905092915050565b7f45524332303a207472616e736665722066726f6d20746865207a65726f20616460008201527f6472657373000000000000000000000000000000000000000000000000000000602082015250565b60006155c9602583613cce565b91506155d48261556d565b604082019050919050565b600060208201905081810360008301526155f8816155bc565b9050919050565b7f45524332303a207472616e7366657220746f20746865207a65726f206164647260008201527f6573730000000000000000000000000000000000000000000000000000000000602082015250565b600061565b602383613cce565b9150615666826155ff565b604082019050919050565b6000602082019050818103600083015261568a8161564e565b9050919050565b7f45524332303a207472616e7366657220616d6f756e742065786365656473206260008201527f616c616e63650000000000000000000000000000000000000000000000000000602082015250565b60006156ed602683613cce565b91506156f882615691565b604082019050919050565b6000602082019050818103600083015261571c816156e0565b9050919050565b600081905092915050565b7f416363657373436f6e74726f6c3a206163636f756e7420000000000000000000600082015250565b6000615764601783615723565b915061576f8261572e565b601782019050919050565b600061578582613cc3565b61578f8185615723565b935061579f818560208601613cdf565b80840191505092915050565b7f206973206d697373696e6720726f6c6520000000000000000000000000000000600082015250565b60006157e1601183615723565b91506157ec826157ab565b601182019050919050565b600061580282615757565b915061580e828561577a565b9150615819826157d4565b9150615825828461577a565b91508190509392505050565b7f5061757361626c653a206e6f7420706175736564000000000000000000000000600082015250565b6000615867601483613cce565b915061587282615831565b602082019050919050565b600060208201905081810360008301526158968161585a565b9050919050565b7f5061757361626c653a2070617573656400000000000000000000000000000000600082015250565b60006158d3601083613cce565b91506158de8261589d565b602082019050919050565b60006020820190508181036000830152615902816158c6565b9050919050565b600061591482613bc0565b915060008203615927576159266146d1565b5b600182039050919050565b7f537472696e67733a20686578206c656e67746820696e73756666696369656e74600082015250565b6000615968602083613cce565b915061597382615932565b602082019050919050565b600060208201905081810360008301526159978161595b565b9050919050565b7f4e487b7100000000000000000000000000000000000000000000000000000000600052603160045260246000fdfea2646970667358221220f01156093c46846798527168cbb1a225d21949358e3d5401993c0612d6246b9e64736f6c634300080d0033",
  "immutableReferences": {
    "1476": [
      {
        "length": 32,
        "start": 4392
      }
    ]
  },
  "source": "//SPDX-License-Identifier: MIT\npragma solidity ^0.8.13;\nimport \"@openzeppelin/contracts/token/ERC20/presets/ERC20PresetMinterPauser.sol\";\nimport \"@openzeppelin/contracts/token/ERC20/extensions/ERC20Capped.sol\";\nimport \"@openzeppelin/contracts/access/Ownable.sol\";\nimport \"@openzeppelin/contracts/utils/math/SafeMath.sol\";\n\ncontract DragonCoin is ERC20PresetMinterPauser, ERC20Capped, Ownable {\n    using SafeMath for uint256;\n    // Addresses for marketing and team wallets\n    address public marketingWallet = 0x4B20993Bc481177ec7E8f571ceCaE8A9e22C02db;\n    address public teamWallet = 0xAb8483F64d9C6d1EcF9b849Ae677dD3315835cb2; // Add your team wallet address here\n\n    // Total redistribution and LP balances\n    uint256 private _totalRedistributionBalance;\n    uint256 public lpBalance;\n    uint256 public redistributionBalance;\n\n    uint16 public buyTaxRate = 50; // 5% on buy\n    uint16 public sellTaxRate = 50; // 5% on sell\n    uint16 public transferTaxRate = 50; // 5% on transfer\n    uint16 public maximumTaxPercentage = 100; // 10%\n\n    // Pair address for identifying buy, sell, or transfer\n    address private _pair;\n\n    // Flags to enable/disable taxes\n    bool public taxesEnabled = true; // Flag to enable/disable taxes\n\n    //events\n    event EtherWithdrawn(address indexed to, uint256 amount);\n    event EtherDeposited(address indexed from, uint256 amount);\n    event TaxRatesUpdated(\n        uint16 indexed newBuyTaxRate,\n        uint16 indexed newSellTaxRate,\n        uint16 indexed newTransferTaxRate\n    );\n    event TaxesUpdated(\n        uint16 marketing,\n        uint16 burn,\n        uint16 team,\n        uint16 redistribution,\n        uint16 lp\n    );\n    event LpWithdrawn(uint256 indexed amount);\n    event TaxesEnabled(string message);\n    event TaxesDisabled(string message);\n    event PairAddressUpdated(address indexed newPair);\n\n    // Struct to hold tax percentages\n    struct Taxes {\n        uint16 marketing;\n        uint16 burn;\n        uint16 team;\n        uint16 redistribution;\n        uint16 lp;\n    }\n\n    Taxes public transferTaxes = Taxes(300, 100, 300, 200, 100); // Initialize with default values (3%, 1%, 3%, 2%, 1%)\n\n    // Mapping to exclude addresses from taxes\n    mapping(address => bool) private _isExcludedFromTaxes;\n\n    // Mapping to detect bot addresses\n    mapping(address => bool) private _isBot;\n\n    constructor(\n        string memory tokenName,\n        string memory tokenSymbol,\n        uint256 supply,\n        address beneficiary\n    )\n        ERC20PresetMinterPauser(tokenName, tokenSymbol)\n        ERC20Capped(SafeMath.mul(supply, 1 ether))\n    {\n        // _isExcludedFromTaxes[beneficiary] = true;\n        _mint(beneficiary, SafeMath.mul(supply, 1 ether));\n        // _mint(beneficiary, supply);\n    }\n\n    function _beforeTokenTransfer(\n        address from,\n        address to,\n        uint256 amount\n    ) internal virtual override(ERC20, ERC20PresetMinterPauser) {\n        super._beforeTokenTransfer(from, to, amount);\n    }\n\n    function _transfer(\n        address sender,\n        address recipient,\n        uint256 amount\n    ) internal virtual override(ERC20) {\n        // Check if the sender is identified as a bot\n        if (_isBot[sender]) {\n            revert(\"You are identified as a bot\");\n        }\n\n        // Check if taxes are enabled\n        if (taxesEnabled) {\n            // Calculate taxes\n            uint256 taxAmount = 0;\n\n            // Determine the type of transfer (buy, sell, or regular transfer)\n            if (sender == _pair) {\n                // Buy tax\n                taxAmount = amount.mul(buyTaxRate).div(1000);\n            } else if (recipient == _pair) {\n                // Sell tax\n                taxAmount = amount.mul(sellTaxRate).div(1000);\n            } else {\n                // Transfer tax\n                taxAmount = amount.mul(transferTaxRate).div(1000);\n            }\n\n            // Exclude certain addresses from taxes\n            if (\n                !_isExcludedFromTaxes[sender] &&\n                !_isExcludedFromTaxes[recipient]\n            ) {\n                // Deduct tax amount from the transferred amount\n                uint256 netAmount = amount.sub(taxAmount);\n\n                // Update redistribution and LP balances\n                redistributionBalance = redistributionBalance.add(\n                    taxAmount.mul(transferTaxes.redistribution).div(1000)\n                );\n                lpBalance = lpBalance.add(\n                    taxAmount.mul(transferTaxes.lp).div(1000)\n                );\n\n                // Distribute taxes\n                super._transfer(\n                    sender,\n                    teamWallet,\n                    taxAmount.mul(transferTaxes.team).div(1000)\n                );\n                super._transfer(\n                    sender,\n                    marketingWallet,\n                    taxAmount.mul(transferTaxes.marketing).div(1000)\n                );\n                super._transfer(\n                    sender,\n                    address(this),\n                    SafeMath.add(\n                        taxAmount.mul(transferTaxes.lp).div(1000),\n                        taxAmount.mul(transferTaxes.redistribution).div(1000)\n                    )\n                );\n                _burn(sender, taxAmount.mul(transferTaxes.burn).div(1000));\n\n                // Call parent implementation with the net amount after taxes\n                super._transfer(sender, recipient, netAmount);\n            } else {\n                // Call parent implementation with the original amount\n                super._transfer(sender, recipient, amount);\n            }\n        } else {\n            // If taxes are disabled, simply transfer the amount\n            super._transfer(sender, recipient, amount);\n        }\n    }\n\n    function _mint(address account, uint256 amount)\n        internal\n        virtual\n        override(ERC20, ERC20Capped)\n    {\n        require(totalSupply() + amount <= cap(), \"ERC20Capped: cap exceeded\");\n        super._mint(account, amount);\n    }\n\n    /**\n     * @dev Excludes an address from taxes. Only callable by the owner.\n     * @param account The address to be excluded from taxes.\n     * @notice Once excluded, the specified address will not incur any taxes on transfers.\n     */\n    function excludeFromTaxes(address account) public onlyOwner {\n        _isExcludedFromTaxes[account] = true;\n    }\n\n    /**\n     * @dev Includes an address in taxes. Only callable by the owner.\n     * @param account The address to be included in taxes.\n     * @notice Once included, the specified address will be subject to taxes on transfers.\n     */\n    function includeInTaxes(address account) public onlyOwner {\n        _isExcludedFromTaxes[account] = false;\n    }\n\n    /**\n     * @dev Checks if an address is excluded from taxes.\n     * @param account The address to check for exclusion from taxes.\n     * @return Whether the address is excluded from taxes or not.\n     */\n    function isExcludedFromTaxes(address account) public view returns (bool) {\n        return _isExcludedFromTaxes[account];\n    }\n\n    /**\n     * @dev Sets the bot status of an address. Only callable by the owner.\n     * @param account The address for which the bot status is to be set.\n     * @param state The new bot status to be set (true for bot, false for non-bot).\n     * @notice Bots may have restricted functionality depending on your implementation.\n     */\n\n    function setBot(address account, bool state) external onlyOwner {\n        require(_isBot[account] != state, \"Value already set\");\n        _isBot[account] = state;\n    }\n\n    /**\n     * @dev Sets the bot status for multiple addresses. Only callable by the owner.\n     * @param accounts An array of addresses for which the bot status is to be set.\n     * @param state The new bot status to be set (true for bot, false for non-bot).\n     * @notice Bots may have restricted functionality depending on your implementation.\n     */\n    function bulkSetBot(address[] memory accounts, bool state)\n        external\n        onlyOwner\n    {\n        for (uint256 i = 0; i < accounts.length; i++) {\n            _isBot[accounts[i]] = state;\n        }\n    }\n\n    /**\n     * @dev Checks if an address is identified as a bot.\n     * @param account The address to check for bot status.\n     * @return Whether the address is identified as a bot or not.\n     * @notice Bot status may affect certain functionalities based on your implementation.\n     */\n\n    function isBot(address account) public view returns (bool) {\n        return _isBot[account];\n    }\n\n    /**\n     * @dev Enables taxes. Only callable by the owner.\n     * @notice Once enabled, taxes will be applied on transfers according to configured rates.\n     */\n    function enableTaxes() external onlyOwner {\n        taxesEnabled = true;\n        emit TaxesEnabled(\"Taxes are now enabled.\");\n    }\n\n    /**\n     * @dev Disables taxes. Only callable by the owner.\n     * @notice Once disabled, taxes will not be applied on transfers.\n     */\n    function disableTaxes() external onlyOwner {\n        taxesEnabled = false;\n        emit TaxesDisabled(\"Taxes are now disabled.\");\n    }\n\n    /**\n     * @dev Sets the pair address for the contract. Only callable by the owner.\n     * @param newPair The new pair address to be set.\n     * @notice The pair address is typically associated with a decentralized exchange (DEX).\n     */\n    function setPairAddress(address newPair) external onlyOwner {\n        require(\n            newPair != address(0),\n            \"DragonCoin: Pair address cannot be zero address\"\n        );\n        _pair = newPair;\n        emit PairAddressUpdated(newPair);\n    }\n\n    /**\n     * @dev Performs an airdrop to multiple recipients.\n     * @param recipients An array of addresses to receive the airdrop.\n     * @param amounts An array of amounts to be airdropped to each recipient.\n     * @notice The amounts array must have the same length as the recipients array.\n     */\n    function airdrop(address[] memory recipients, uint256[] memory amounts)\n        external\n        onlyOwner\n    {\n        require(\n            recipients.length == amounts.length,\n            \"Mismatched arrays length\"\n        );\n\n        for (uint256 i = 0; i < recipients.length; i++) {\n            uint256 amount = amounts[i];\n\n            require(amount > 0, \"Airdrop amount must be greater than 0\");\n            require(\n                amount <= redistributionBalance,\n                \"Insufficient redistribution balance\"\n            );\n\n            // Perform airdrop\n            _transfer(address(this), recipients[i], amount);\n\n            // Update redistribution balance\n            redistributionBalance = redistributionBalance.sub(amount);\n        }\n    }\n\n    /**\n     * @dev Function to withdraw LP tokens. Only callable by the owner.\n     * @param amount The amount of LP tokens to be withdrawn.\n     * @notice LP tokens are typically associated with liquidity provision on decentralized exchanges.\n     */\n    function withdrawLp(uint256 amount) external onlyOwner {\n        require(amount <= lpBalance, \"Insufficient LP balance\");\n        lpBalance = lpBalance.sub(amount);\n        _transfer(address(this), owner(), amount);\n        emit LpWithdrawn(amount);\n    }\n\n    /**\n     * @dev Function to withdraw Ether to a specific address. Only callable by the owner.\n     * @param to The address to which the Ether should be withdrawn.\n     * @param amount The amount of Ether to be withdrawn.\n     */\n    function withdrawEther(address to, uint256 amount) external onlyOwner {\n        require(amount <= address(this).balance, \"Insufficient balance\");\n        payable(to).transfer(amount);\n\n        // Emit an event to log the withdrawal of Ether.\n        emit EtherWithdrawn(to, amount);\n    }\n\n    /**\n     * @dev Function to update tax rates. Only callable by the owner.\n     * @param newBuyTaxRate The new tax rate for buys.\n     * @param newSellTaxRate The new tax rate for sells.\n     * @param newTransferTaxRate The new tax rate for transfers.\n     * @notice Tax rates are in basis points (1% = 100 basis points).\n     */\n\n    function updateTaxRates(\n        uint16 newBuyTaxRate,\n        uint16 newSellTaxRate,\n        uint16 newTransferTaxRate\n    ) external onlyOwner {\n        require(\n            newBuyTaxRate <= maximumTaxPercentage &&\n                newSellTaxRate <= maximumTaxPercentage &&\n                newTransferTaxRate <= maximumTaxPercentage,\n            \"Invalid tax rate\"\n        );\n        buyTaxRate = newBuyTaxRate;\n        sellTaxRate = newSellTaxRate;\n        transferTaxRate = newTransferTaxRate;\n\n        emit TaxRatesUpdated(newBuyTaxRate, newSellTaxRate, newTransferTaxRate);\n    }\n\n    /**\n     * @dev Function to update taxes percentages. Only callable by the owner.\n     * @param marketing The new percentage for marketing.\n     * @param burn The new percentage for burning.\n     * @param team The new percentage for the team.\n     * @param redistribution The new percentage for redistribution.\n     * @param lp The new percentage for LP tokens.\n     * @notice The sum of percentages should not exceed 1000 (100%).\n     */\n    function updateTaxes(\n        uint16 marketing,\n        uint16 burn,\n        uint16 team,\n        uint16 redistribution,\n        uint16 lp\n    ) external onlyOwner {\n        require(\n            marketing + burn + team + redistribution + lp <= 1000,\n            \"Total taxes cannot exceed 100%\"\n        );\n        transferTaxes = Taxes(marketing, burn, team, redistribution, lp);\n\n        emit TaxesUpdated(marketing, burn, team, redistribution, lp);\n    }\n\n    receive() external payable {\n        emit EtherDeposited(msg.sender, msg.value);\n    }\n}\n",
  "sourcePath": "/Users/hussammustafa/Developer/Hussam/Ethereum/coints/DragonCoin/contracts/DragonCoin.sol",
  "compiler": {
    "name": "solc",
    "version": "0.8.13+commit.abaa5c0e.Emscripten.clang"
  },
  "schemaVersion": "3.4.14",
  "updatedAt": "2024-01-14T13:09:31.191Z",
  "networkType": "ethereum",
  "devdoc": {
    "kind": "dev",
    "methods": {
      "airdrop(address[],uint256[])": {
        "details": "Performs an airdrop to multiple recipients.",
        "params": {
          "amounts": "An array of amounts to be airdropped to each recipient.",
          "recipients": "An array of addresses to receive the airdrop."
        }
      },
      "allowance(address,address)": {
        "details": "See {IERC20-allowance}."
      },
      "approve(address,uint256)": {
        "details": "See {IERC20-approve}. NOTE: If `amount` is the maximum `uint256`, the allowance is not updated on `transferFrom`. This is semantically equivalent to an infinite approval. Requirements: - `spender` cannot be the zero address."
      },
      "balanceOf(address)": {
        "details": "See {IERC20-balanceOf}."
      },
      "bulkSetBot(address[],bool)": {
        "details": "Sets the bot status for multiple addresses. Only callable by the owner.",
        "params": {
          "accounts": "An array of addresses for which the bot status is to be set.",
          "state": "The new bot status to be set (true for bot, false for non-bot)."
        }
      },
      "burn(uint256)": {
        "details": "Destroys `amount` tokens from the caller. See {ERC20-_burn}."
      },
      "burnFrom(address,uint256)": {
        "details": "Destroys `amount` tokens from `account`, deducting from the caller's allowance. See {ERC20-_burn} and {ERC20-allowance}. Requirements: - the caller must have allowance for ``accounts``'s tokens of at least `amount`."
      },
      "cap()": {
        "details": "Returns the cap on the token's total supply."
      },
      "decimals()": {
        "details": "Returns the number of decimals used to get its user representation. For example, if `decimals` equals `2`, a balance of `505` tokens should be displayed to a user as `5.05` (`505 / 10 ** 2`). Tokens usually opt for a value of 18, imitating the relationship between Ether and Wei. This is the default value returned by this function, unless it's overridden. NOTE: This information is only used for _display_ purposes: it in no way affects any of the arithmetic of the contract, including {IERC20-balanceOf} and {IERC20-transfer}."
      },
      "decreaseAllowance(address,uint256)": {
        "details": "Atomically decreases the allowance granted to `spender` by the caller. This is an alternative to {approve} that can be used as a mitigation for problems described in {IERC20-approve}. Emits an {Approval} event indicating the updated allowance. Requirements: - `spender` cannot be the zero address. - `spender` must have allowance for the caller of at least `subtractedValue`."
      },
      "disableTaxes()": {
        "details": "Disables taxes. Only callable by the owner."
      },
      "enableTaxes()": {
        "details": "Enables taxes. Only callable by the owner."
      },
      "excludeFromTaxes(address)": {
        "details": "Excludes an address from taxes. Only callable by the owner.",
        "params": {
          "account": "The address to be excluded from taxes."
        }
      },
      "getRoleAdmin(bytes32)": {
        "details": "Returns the admin role that controls `role`. See {grantRole} and {revokeRole}. To change a role's admin, use {_setRoleAdmin}."
      },
      "getRoleMember(bytes32,uint256)": {
        "details": "Returns one of the accounts that have `role`. `index` must be a value between 0 and {getRoleMemberCount}, non-inclusive. Role bearers are not sorted in any particular way, and their ordering may change at any point. WARNING: When using {getRoleMember} and {getRoleMemberCount}, make sure you perform all queries on the same block. See the following https://forum.openzeppelin.com/t/iterating-over-elements-on-enumerableset-in-openzeppelin-contracts/2296[forum post] for more information."
      },
      "getRoleMemberCount(bytes32)": {
        "details": "Returns the number of accounts that have `role`. Can be used together with {getRoleMember} to enumerate all bearers of a role."
      },
      "grantRole(bytes32,address)": {
        "details": "Grants `role` to `account`. If `account` had not been already granted `role`, emits a {RoleGranted} event. Requirements: - the caller must have ``role``'s admin role. May emit a {RoleGranted} event."
      },
      "hasRole(bytes32,address)": {
        "details": "Returns `true` if `account` has been granted `role`."
      },
      "includeInTaxes(address)": {
        "details": "Includes an address in taxes. Only callable by the owner.",
        "params": {
          "account": "The address to be included in taxes."
        }
      },
      "increaseAllowance(address,uint256)": {
        "details": "Atomically increases the allowance granted to `spender` by the caller. This is an alternative to {approve} that can be used as a mitigation for problems described in {IERC20-approve}. Emits an {Approval} event indicating the updated allowance. Requirements: - `spender` cannot be the zero address."
      },
      "isBot(address)": {
        "details": "Checks if an address is identified as a bot.",
        "params": {
          "account": "The address to check for bot status."
        },
        "returns": {
          "_0": "Whether the address is identified as a bot or not."
        }
      },
      "isExcludedFromTaxes(address)": {
        "details": "Checks if an address is excluded from taxes.",
        "params": {
          "account": "The address to check for exclusion from taxes."
        },
        "returns": {
          "_0": "Whether the address is excluded from taxes or not."
        }
      },
      "mint(address,uint256)": {
        "details": "Creates `amount` new tokens for `to`. See {ERC20-_mint}. Requirements: - the caller must have the `MINTER_ROLE`."
      },
      "name()": {
        "details": "Returns the name of the token."
      },
      "owner()": {
        "details": "Returns the address of the current owner."
      },
      "pause()": {
        "details": "Pauses all token transfers. See {ERC20Pausable} and {Pausable-_pause}. Requirements: - the caller must have the `PAUSER_ROLE`."
      },
      "paused()": {
        "details": "Returns true if the contract is paused, and false otherwise."
      },
      "renounceOwnership()": {
        "details": "Leaves the contract without owner. It will not be possible to call `onlyOwner` functions. Can only be called by the current owner. NOTE: Renouncing ownership will leave the contract without an owner, thereby disabling any functionality that is only available to the owner."
      },
      "renounceRole(bytes32,address)": {
        "details": "Revokes `role` from the calling account. Roles are often managed via {grantRole} and {revokeRole}: this function's purpose is to provide a mechanism for accounts to lose their privileges if they are compromised (such as when a trusted device is misplaced). If the calling account had been revoked `role`, emits a {RoleRevoked} event. Requirements: - the caller must be `account`. May emit a {RoleRevoked} event."
      },
      "revokeRole(bytes32,address)": {
        "details": "Revokes `role` from `account`. If `account` had been granted `role`, emits a {RoleRevoked} event. Requirements: - the caller must have ``role``'s admin role. May emit a {RoleRevoked} event."
      },
      "setBot(address,bool)": {
        "details": "Sets the bot status of an address. Only callable by the owner.",
        "params": {
          "account": "The address for which the bot status is to be set.",
          "state": "The new bot status to be set (true for bot, false for non-bot)."
        }
      },
      "setPairAddress(address)": {
        "details": "Sets the pair address for the contract. Only callable by the owner.",
        "params": {
          "newPair": "The new pair address to be set."
        }
      },
      "supportsInterface(bytes4)": {
        "details": "See {IERC165-supportsInterface}."
      },
      "symbol()": {
        "details": "Returns the symbol of the token, usually a shorter version of the name."
      },
      "totalSupply()": {
        "details": "See {IERC20-totalSupply}."
      },
      "transfer(address,uint256)": {
        "details": "See {IERC20-transfer}. Requirements: - `to` cannot be the zero address. - the caller must have a balance of at least `amount`."
      },
      "transferFrom(address,address,uint256)": {
        "details": "See {IERC20-transferFrom}. Emits an {Approval} event indicating the updated allowance. This is not required by the EIP. See the note at the beginning of {ERC20}. NOTE: Does not update the allowance if the current allowance is the maximum `uint256`. Requirements: - `from` and `to` cannot be the zero address. - `from` must have a balance of at least `amount`. - the caller must have allowance for ``from``'s tokens of at least `amount`."
      },
      "transferOwnership(address)": {
        "details": "Transfers ownership of the contract to a new account (`newOwner`). Can only be called by the current owner."
      },
      "unpause()": {
        "details": "Unpauses all token transfers. See {ERC20Pausable} and {Pausable-_unpause}. Requirements: - the caller must have the `PAUSER_ROLE`."
      },
      "updateTaxRates(uint16,uint16,uint16)": {
        "details": "Function to update tax rates. Only callable by the owner.",
        "params": {
          "newBuyTaxRate": "The new tax rate for buys.",
          "newSellTaxRate": "The new tax rate for sells.",
          "newTransferTaxRate": "The new tax rate for transfers."
        }
      },
      "updateTaxes(uint16,uint16,uint16,uint16,uint16)": {
        "details": "Function to update taxes percentages. Only callable by the owner.",
        "params": {
          "burn": "The new percentage for burning.",
          "lp": "The new percentage for LP tokens.",
          "marketing": "The new percentage for marketing.",
          "redistribution": "The new percentage for redistribution.",
          "team": "The new percentage for the team."
        }
      },
      "withdrawEther(address,uint256)": {
        "details": "Function to withdraw Ether to a specific address. Only callable by the owner.",
        "params": {
          "amount": "The amount of Ether to be withdrawn.",
          "to": "The address to which the Ether should be withdrawn."
        }
      },
      "withdrawLp(uint256)": {
        "details": "Function to withdraw LP tokens. Only callable by the owner.",
        "params": {
          "amount": "The amount of LP tokens to be withdrawn."
        }
      }
    },
    "version": 1
  },
  "userdoc": {
    "kind": "user",
    "methods": {
      "airdrop(address[],uint256[])": {
        "notice": "The amounts array must have the same length as the recipients array."
      },
      "bulkSetBot(address[],bool)": {
        "notice": "Bots may have restricted functionality depending on your implementation."
      },
      "disableTaxes()": {
        "notice": "Once disabled, taxes will not be applied on transfers."
      },
      "enableTaxes()": {
        "notice": "Once enabled, taxes will be applied on transfers according to configured rates."
      },
      "excludeFromTaxes(address)": {
        "notice": "Once excluded, the specified address will not incur any taxes on transfers."
      },
      "includeInTaxes(address)": {
        "notice": "Once included, the specified address will be subject to taxes on transfers."
      },
      "isBot(address)": {
        "notice": "Bot status may affect certain functionalities based on your implementation."
      },
      "setBot(address,bool)": {
        "notice": "Bots may have restricted functionality depending on your implementation."
      },
      "setPairAddress(address)": {
        "notice": "The pair address is typically associated with a decentralized exchange (DEX)."
      },
      "updateTaxRates(uint16,uint16,uint16)": {
        "notice": "Tax rates are in basis points (1% = 100 basis points)."
      },
      "updateTaxes(uint16,uint16,uint16,uint16,uint16)": {
        "notice": "The sum of percentages should not exceed 1000 (100%)."
      },
      "withdrawLp(uint256)": {
        "notice": "LP tokens are typically associated with liquidity provision on decentralized exchanges."
      }
    },
    "version": 1
  }
}